:100000000C945D000C9485000C9485000C94850084
:100010000C9485000C9485000C9485000C9485004C
:100020000C9485000C9485000C9485000C9485003C
:100030000C9485000C9485000C9485000C9485002C
:100040000C94F5050C9485000C9465060C943F0601
:100050000C9485000C9485000C9485000C9485000C
:100060000C9485000C9485000000000024002700FB
:100070002A0000000000250028002B0004040404CE
:100080000404040402020202020203030303030342
:10009000010204081020408001020408102001021F
:1000A00004081020000000080002010000030407FB
:1000B0000000000000000000970611241FBECFEFD3
:1000C000D8E0DEBFCDBF11E0A0E0B1E0E6E0F9E1AD
:1000D00002C005900D92A238B107D9F722E0A2E83C
:1000E000B1E001C01D92A335B207E1F710E0CDE504
:1000F000D0E004C02197FE010E94760CCC35D107D8
:10010000C9F70E94E1060C94810C0C94000090E069
:10011000FC01EC55FF4F2491FC01E057FF4F349157
:10012000FC01E458FF4FE491EE2309F43CC0222384
:1001300039F1233091F038F42130A9F0223001F563
:1001400084B58F7D12C0273091F02830A1F0243083
:10015000B9F4809180008F7D03C0809180008F77FB
:10016000809380000DC084B58F7784BD09C08091D5
:10017000B0008F7703C08091B0008F7D8093B00076
:10018000F0E0EE0FFF1FEE58FF4FA591B4919FB71F
:10019000F894611104C08C913095382302C0EC9121
:1001A0003E2B3C939FBF0895CF93DF9390E0FC01DB
:1001B000E057FF4F2491FC01E458FF4F84918823BE
:1001C00061F190E0880F991FFC01E859FF4FC5913C
:1001D000D491FC01EE58FF4FA591B491611109C073
:1001E0009FB7F8948881209582238883EC912E23F1
:1001F0000BC0623061F49FB7F8948881322F30953C
:1002000083238883EC912E2B2C939FBF06C08FB73E
:10021000F894E8812E2B28838FBFDF91CF9108952A
:100220008E3008F08E508770806480937C008091BF
:100230007A00806480937A0080917A0086FDFCCFFA
:10024000809178002091790090E0922B08953FB73B
:10025000F89480919A0190919B01A0919C01B0919A
:100260009D0126B5A89B05C02F3F19F00196A11D41
:10027000B11D3FBFBA2FA92F982F8827820F911D3C
:10028000A11DB11DBC01CD0142E0660F771F881F83
:10029000991F4A95D1F708958F929F92AF92BF927E
:1002A000CF92DF92EF92FF926B017C010E942701B7
:1002B0004B015C01C114D104E104F104F1F00E948E
:1002C0002701DC01CB0188199909AA09BB09883EDD
:1002D0009340A105B10570F321E0C21AD108E108ED
:1002E000F10888EE880E83E0981EA11CB11CC11491
:1002F000D104E104F10419F7DDCFFF90EF90DF9016
:10030000CF90BF90AF909F908F900895CF92DF9243
:10031000EF92FF920F931F93CF93DF936C017A01BB
:100320008B01C0E0D0E0CE15DF0581F0D8016D91E2
:100330008D01D601ED91FC910190F081E02DC60177
:100340000995892B11F02196EECF7E01C701DF912F
:10035000CF911F910F91FF90EF90DF90CF90089574
:10036000FC01538D448D252F30E0842F90E0821BBB
:10037000930B541710F0CF96089501970895FC0140
:10038000918D828D981761F0828DDF01A80FB11DCC
:100390005D968C91928D9F5F9F73928F90E00895F0
:1003A0008FEF9FEF0895FC01918D828D981731F0AA
:1003B000828DE80FF11D858D90E008958FEF9FEFFE
:1003C0000895FC01918D228D892F90E0805C9F4FD4
:1003D000821B91098F73992708958EE991E00E94FD
:1003E000E10121E0892B09F420E0822F0895FC012E
:1003F000848DDF01A80FB11DA35ABF4F2C91848DAE
:1004000090E001968F739927848FA689B7892C93E2
:10041000A089B1898C91837080648C93938D848D35
:10042000981306C00288F389E02D80818F7D808338
:100430000895EF92FF920F931F93CF93DF93EC01F8
:1004400081E0888F9B8D8C8D981305C0E889F98990
:10045000808185FD26C0F62E0B8D10E00F5F1F4FAB
:100460000F731127E02E8C8DE8120CC00FB607FC1D
:10047000FACFE889F989808185FFF5CFCE010E9406
:10048000F701F1CF8B8DFE01E80FF11DE35AFF4F0D
:10049000F0829FB7F8940B8FEA89FB898081806294
:1004A0000AC09FB7F894EE89FF896083E889F989CB
:1004B00080818370806480839FBF81E090E0DF91C2
:1004C000CF911F910F91FF90EF900895CF93DF93FD
:1004D000EC01888D8823C9F0EA89FB89808185FD3C
:1004E00005C0A889B9898C9186FD0FC00FB607FC9D
:1004F000F5CF808185FFF2CFA889B9898C9185FFDE
:10050000EDCFCE010E94F701E7CFDF91CF910895A3
:1005100080E090E0892B29F00E94ED0181110C947C
:1005200000000895CF93DF93EC0160E08E810E947C
:10053000870061E08E810E94870060E08E810E94CA
:1005400087008BE891E00197F1F7DF91CF91089553
:10055000CF92DF92EF92FF920F931F93CF93DF938F
:100560006C017C0187E0E80EF11CC0E0D0E0062FB2
:1005700010E0B8010C2E02C0759567950A94E2F759
:100580006170F70181917F010E9487002196C4303C
:10059000D10579F7C601DF91CF911F910F91FF909F
:1005A000EF90DF90CF900C949202CF92DF92EF9277
:1005B000FF920F931F93CF93DF93EC01F62E642FDE
:1005C0008C810E9487008D818F3F19F060E00E942E
:1005D00087008F850F2D10E084FF25C06E0187E016
:1005E000C80ED11CE12CF12CB8010E2C02C075955F
:1005F00067950A94E2F76170F60181916F010E949C
:100600008700FFEFEF1AFF0A88E0E816F10461F7B0
:10061000CE01DF91CF911F910F91FF90EF90DF906E
:10062000CF900C949202B80184E0759567958A95F5
:10063000E1F7CE010E94A8026F2DCE01DF91CF918C
:100640001F910F91FF90EF90DF90CF900C94A80234
:1006500040E0682F8BE392E00C94D50281E00E9489
:1006600028038BE39FE10197F1F70895CF93DF9380
:10067000823028F090914A02986090934A028093C9
:100680004E0210924F0280E48093500280E18093EA
:10069000510280E58093520261E080913F020E9406
:1006A000D400809140028F3F19F061E00E94D40095
:1006B00061E0809141020E94D400CBE3D2E09E0130
:1006C0002B53324080914A0284FD03C084E090E0C5
:1006D00002C088E090E02196281739072CF461E0E9
:1006E0008E810E94D400EBCF8BE39DE00197F1F760
:1006F00060E080913F020E94870060E080914102AB
:100700000E948700809140028F3F19F060E00E94B4
:10071000870080914A0284FD20C063E08BE392E071
:100720000E94A802CBE4D6E4CE010197F1F763E082
:100730008BE392E00E94A8022197F1F763E08BE33C
:1007400092E00E94A80283E592E00197F1F762E04F
:100750008BE392E00E94A80215C080620E942803E9
:100760008BE496E40197F1F780914A0280620E943F
:10077000280383E592E00197F1F780914A028062B5
:100780000E94280380914A0280620E94280384E02C
:1007900080934B028CE00E9428030E942E0382E08B
:1007A00080934C0286E0DF91CF910C942803643053
:1007B00008F063E090914E02691710F06FEF690F37
:1007C000E62FF0E0E55CFD4F9489890F80680C947A
:1007D000280382E00E9428038BE39FE10197F1F751
:1007E000089541E00E94D50281E090E008950F93C2
:1007F0001F93CF93DF9388E40E942803C8E0D1E0E1
:1008000000E111E069918BE392E00E94F1030C1783
:100810001D07C1F7DF91CF911F910F9108950895A2
:1008200080E090E00895CF92DF92EF92FF928FE008
:100830000E941001BC01990F880B990B0E942D0B8F
:1008400020E030E040EA50E40E94E20B20E030E09B
:1008500040E85AE30E94E20B6B017C0120E030E0AB
:1008600040E950E40E94DD0B87FF3FC020E030E00C
:1008700040E850E4C701B6010E94850A87FF0AC01C
:1008800020E030E040E650E4C701B6010E94DD0BF5
:10089000181674F12AE939E949E550E4C701B601AF
:1008A0000E94850A87FF0AC02AE939E949E350E432
:1008B000C701B6010E94DD0B1816ECF023E333E309
:1008C00043E350E4C701B6010E94850A87FF16C0C2
:1008D00020E030E040E050E4C701B6010E94DD0BAB
:1008E000181664F484E090E00BC081E090E008C04A
:1008F00082E090E005C083E090E002C080E090E0FC
:10090000FF90EF90DF90CF900895CF93DF930E94F8
:100910001304EC01892BD9F30E941304892BE1F70E
:1009200064E670E080E090E00E944C01CE01DF912F
:10093000CF9108950E947C0C6115710579F0FB013F
:1009400001900020E9F73197AF01461B570BDC01FE
:10095000ED91FC910280F381E02D099480E090E01C
:100960000895BC018BE392E00C949C042F923F927B
:100970004F925F926F927F928F929F92AF92BF92AF
:10098000CF92DF92EF92FF920F931F93CF93DF935B
:10099000CDB7DEB7A2970FB6F894DEBF0FBECDBFBE
:1009A0008C014A015B01D22E9A01AB01C501B40151
:1009B0000E944F0C882319F06EE271E027C02401D9
:1009C0003501E89477F82FEF3FEF4FE75FE7C3017A
:1009D000B2010E944F0C81110DC02FEF3FEF4FE786
:1009E0005FE7C301B2010E94850A18161CF462E396
:1009F00071E00CC02FEF3FEF4FE75FE4C501B4019A
:100A00000E94DD0B181634F466E371E0C8010E9401
:100A10009C04BDC02FEF3FEF4FE75FECC501B40171
:100A20000E94850A87FDF0CF20E030E0A901C501D2
:100A3000B4010E94850A87FF0FC0D801ED91FC9197
:100A40000190F081E02D6DE2C80109951C01B7FA13
:100A5000B094B7F8B09402C0212C312CF12C60E096
:100A600070E080E09FE3DF1441F020E030E040E2FE
:100A700051E40E948A0AF394F6CFA50194010E94E2
:100A8000190A4B015C010E94FC0A562E672E782E33
:100A9000C92E19A2262F372F482F592F7E01B1E2D8
:100AA000EB0EF11CEAA24F2CCA01B9012AE030E09A
:100AB00040E050E00E94540C605DF70162937F01BA
:100AC000211531054105510579F7BF01C8010E9483
:100AD0009C047101E80EF91EDD2009F457C0652D54
:100AE000762D872D9C2D0E942B0B9B01AC01C501FF
:100AF000B4010E94180A4B015C01D801ED91FC91F0
:100B00000190F081E02D6EE2C8010995E80EF91E12
:100B100020E030E040E251E4C501B4010E94E20B64
:100B20004B015C010E94FC0A9B0140E050E019A2CD
:100B30002AA0342C562E632E742EC52ECA01B9015C
:100B40002AE030E040E050E00E94540C605DF1018A
:100B500062931F01211531054105510579F7BF0148
:100B6000C8010E949C04E80EF91E652D762D872D84
:100B70009C2D0E942B0B9B01AC01C501B4010E946E
:100B8000180A4B015C01DA94D110C2CFC701A296BA
:100B90000FB6F894DEBF0FBECDBFDF91CF911F918E
:100BA0000F91FF90EF90DF90CF90BF90AF909F900C
:100BB0008F907F906F905F904F903F902F9008950F
:100BC000CF93DF93AB01BC0122E08EE991E00E945C
:100BD000B604EC016AE371E08EE991E00E949C04A6
:100BE0008C0F9D1FDF91CF9108951F920F920FB62A
:100BF0000F9211242F933F938F939F93AF93BF93A3
:100C00008091960190919701A0919801B0919901DE
:100C10003091950123E0230F2D3720F40196A11D7B
:100C2000B11D05C026E8230F0296A11DB11D20931A
:100C300095018093960190939701A0939801B093AA
:100C4000990180919A0190919B01A0919C01B09192
:100C50009D010196A11DB11D80939A0190939B0166
:100C6000A0939C01B0939D01BF91AF919F918F91F3
:100C70003F912F910F900FBE0F901F9018951F92CC
:100C80000F920FB60F9211242F933F934F935F93C0
:100C90006F937F938F939F93AF93BF93EF93FF9344
:100CA0008EE991E00E94F701FF91EF91BF91AF9122
:100CB0009F918F917F916F915F914F913F912F9174
:100CC0000F900FBE0F901F9018951F920F920FB6A6
:100CD0000F9211242F938F939F93EF93FF93E091A3
:100CE000AE01F091AF018081E091B401F091B501C6
:100CF00082FD12C090818091B7018F5F8F73209128
:100D0000B801821751F0E091B701F0E0E256FE4FD2
:100D1000958F8093B70101C08081FF91EF919F91E2
:100D20008F912F910F900FBE0F901F901895EEE9A5
:100D3000F1E01382128288EE93E0A0E0B0E08483B9
:100D40009583A683B78384E191E09183808385ECCA
:100D500090E09587848784EC90E09787868780EC85
:100D600090E0918B808B81EC90E0938B828B82EC76
:100D700090E0958B848B86EC90E0978B868B118E20
:100D8000128E138E148EEBE3F2E01382128286E24F
:100D900091E09183808387E084838FEF858386E071
:100DA000868385E0878384E0808783E0818782E093
:100DB00082871386148615861686178681E00C9422
:100DC0003603789484B5826084BD84B5816084BD27
:100DD00085B5826085BD85B5816085BD80916E00D9
:100DE000816080936E00109281008091810082600A
:100DF0008093810080918100816080938100809147
:100E000080008160809380008091B1008460809335
:100E1000B1008091B00081608093B00080917A0031
:100E2000846080937A0080917A00826080937A0057
:100E300080917A00816080937A0080917A00806846
:100E400080937A001092C10060E08EE00E94D4008E
:100E500060E08FE00E94D40060E080E10E94D40056
:100E6000E091AE01F091AF0182E08083E091AA01B0
:100E7000F091AB011082E091AC01F091AD018FECEB
:100E800080831092B601E091B201F091B30186E047
:100E90008083E091B001F091B10180818061808315
:100EA000E091B001F091B101808188608083E09190
:100EB000B001F091B101808180688083E091B00140
:100EC000F091B10180818F7D808382E00E943603A2
:100ED0000E94E9030E942E038DE391E00E94B10479
:100EE00064EF71E080E090E00E944C0160E085E0FA
:100EF0000E94D70383E491E00E94B10464EF71E0A3
:100F000080E090E00E944C0160E086E00E94D70300
:100F100083E491E00E94B10464EF71E080E090E02E
:100F20000E944C0160E087E00E94D70383E491E0D7
:100F30000E94B1040E942E0385E491E00E94B10456
:100F400061E085E00E94D70386E591E00E94B1044C
:100F500064EF71E080E090E00E944C010E942E035B
:100F60000E941304EC018EE00E941001BC01990F55
:100F7000880B990B0E942D0B20E030E040EA50E4F2
:100F80000E94E20B20E030E048EC52E40E94E20BC9
:100F900020E030E040E85AE30E94E20B60939101C8
:100FA00070939201809393019093940180E10E9449
:100FB0001001BC01990F880B990B0E942D0B20E0AA
:100FC00030E040EA50E40E94E20B20E030E040E8EC
:100FD0005AE30E94E20B60938D0170938E0180931F
:100FE0008F019093900181E10E941001BC01990F43
:100FF000880B990B0E942D0B20E030E040EA50E472
:101000000E94E20B20E030E040E85AE30E94E20B4D
:101010006093890170938A0180938B0190938C0176
:101020000E94E9038DE591E00E94B1040E94F7035C
:1010300061E085E00E94D70361E08BE392E00E94CB
:10104000F1030E94F70361E08EE00E94D70361E0A4
:101050008BE392E00E94F103C0909101D090920145
:10106000E0909301F090940120E030E040E151E401
:10107000C701B6010E94E20B20E030E040E253E4F9
:101080000E94190A20E030E040EA50E40E948A0AF7
:10109000609384017093850180938601909387010A
:1010A00061E080E00E94D70322E0B701A6018BE354
:1010B00092E00E94B60461E086E00E94D7038AE6CF
:1010C00091E00E94B10461E089E00E94D703409161
:1010D000840150918501609186017091870122E021
:1010E0008BE392E00E94B60461E08FE00E94D70398
:1010F0008CE691E00E94B104C0909101D0909201E1
:10110000E0909301F0909401209104013091050149
:101110004091060150910701C701B6010E94DD0B05
:10112000181644F4C0920401D0920501E092060121
:10113000F0920701209100013091010140910201DC
:1011400050910301C701B6010E94850A87FF08C0BC
:10115000C0920001D0920101E0920201F0920301DD
:10116000C230D10509F063C00E942E0360E080E028
:101170000E94D7038EE691E00E94B10460E082E015
:101180000E94D7034091040150910501609106012E
:101190007091070122E08BE392E00E94B60461E0C7
:1011A00080E00E94D70381E791E00E94B10461E0F2
:1011B00082E00E94D70340910001509101016091AB
:1011C00002017091030122E08BE392E00E94B604D9
:1011D0000E94F70360E087E00E94D70361E08BE3A1
:1011E00092E00E94F1030E94F70361E087E00E9411
:1011F000D70361E08BE392E00E94F10360E088E0B6
:101200000E94D7038AE691E00E94B10461E088E081
:101210000E94D7038AE691E00E94B10468EE73E071
:1012200080E090E00E944C010E942E03AFC0219705
:1012300009F0ACC081E080938801C1E08091880111
:10124000882309F4A3C00E9485040197B9F7C093CD
:10125000830180918301882309F493C081E10E9476
:101260001001BC01990F880B990B0E942D0B20E0F7
:1012700030E040EA50E40E94E20B20E030E040E839
:101280005AE30E94E20B6093890170938A01809374
:101290008B0190938C010E942E030E94E90384E746
:1012A00091E00E94B10460E088E00E94D703409181
:1012B000890150918A0160918B0170918C0122E02B
:1012C0008BE392E00E94B60460E08FE00E94D703B7
:1012D0008BE791E00E94B1040E948504019709F018
:1012E000B8CFC093820180918201882309F446C05F
:1012F00080E10E941001BC01990F880B990B0E949C
:101300002D0B20E030E040EA50E40E94E20B20E0A8
:1013100030E040E85AE30E94E20B60938D01709345
:101320008E0180938F01909390010E942E030E9462
:10133000E9038DE791E00E94B10460E088E00E943B
:10134000D70340918D0150918E0160918F01709172
:10135000900122E08BE392E00E94B60460E08FE00F
:101360000E94D7038BE791E00E94B1040E9485049C
:10137000019709F0B8CF10928201B5CF1092830186
:1013800068CF0E942E031092880158CF8EE991E019
:101390000E94E101181619060CF047C08EE991E091
:1013A0000E94BF01813649F46091910170919201D0
:1013B000809193019091940136C0823649F46091F6
:1013C00084017091850180918601909187012BC0E5
:1013D000833649F460910401709105018091060102
:1013E0009091070120C0843649F46091000170910A
:1013F0000101809102019091030115C0853649F4E5
:101400006091890170918A0180918B0190918C018A
:101410000AC0863651F460918D0170918E018091E1
:101420008F01909190010E94E0050E94880298CD62
:101430005058BB27AA270E94300A0C94A30B0E9485
:10144000950B38F00E949C0B20F039F49F3F19F463
:1014500026F40C94920B0EF4E095E7FB0C948C0BA5
:10146000E92F0E94B40B58F3BA1762077307840779
:10147000950720F079F4A6F50C94D60B0EF4E095C0
:101480000B2EBA2FA02D0B01B90190010C01CA013E
:10149000A0011124FF27591B99F0593F50F4503EE9
:1014A00068F11A16F040A22F232F342F4427585FDB
:1014B000F3CF469537952795A795F0405395C9F7F3
:1014C0007EF41F16BA0B620B730B840BBAF09150AB
:1014D000A1F0FF0FBB1F661F771F881FC2F70EC04A
:1014E000BA0F621F731F841F48F48795779567951D
:1014F000B795F7959E3F08F0B0CF9395880F08F009
:101500009927EE0F9795879508950E94680B08F428
:1015100081E008950E949E0A0C94A30B0E949C0BEC
:1015200058F00E94950B40F029F45F3F29F00C948D
:101530008C0B51110C94D70B0C94920B0E94B40B92
:1015400068F39923B1F3552391F3951B550BBB27F2
:10155000AA2762177307840738F09F5F5F4F220F37
:10156000331F441FAA1FA9F335D00E2E3AF0E0E82E
:1015700032D091505040E695001CCAF72BD0FE2F78
:1015800029D0660F771F881FBB1F2617370748070C
:10159000AB07B0E809F0BB0B802DBF01FF279358C4
:1015A0005F4F3AF09E3F510578F00C948C0B0C94F1
:1015B000D70B5F3FE4F3983ED4F386957795679514
:1015C000B795F7959F5FC9F7880F911D96958795F9
:1015D00097F90895E1E0660F771F881FBB1F621718
:1015E00073078407BA0720F0621B730B840BBA0BD6
:1015F000EE1F88F7E09508950E94BC0B88F09F5776
:1016000098F0B92F9927B751B0F0E1F0660F771F26
:10161000881F991F1AF0BA95C9F714C0B13091F01C
:101620000E94D60BB1E008950C94D60B672F782F4B
:101630008827B85F39F0B93FCCF3869577956795E1
:10164000B395D9F73EF490958095709561957F4F4D
:101650008F4F9F4F0895E89409C097FB3EF49095F3
:101660008095709561957F4F8F4F9F4F9923A9F07B
:10167000F92F96E9BB279395F6958795779567950A
:10168000B795F111F8CFFAF4BB0F11F460FF1BC04E
:101690006F5F7F4F8F4F9F4F16C0882311F096E9E1
:1016A00011C0772321F09EE8872F762F05C066238F
:1016B00071F096E8862F70E060E02AF09A95660F48
:1016C000771F881FDAF7880F9695879597F9089501
:1016D000990F0008550FAA0BE0E8FEEF1616170643
:1016E000E807F907C0F012161306E407F50798F0AB
:1016F000621B730B840B950B39F40A2661F0232BC4
:10170000242B252B21F408950A2609F4A140A6953F
:101710008FEF811D811D089597F99F6780E870E024
:1017200060E008959FEF80EC089500240A94161657
:10173000170618060906089500240A9412161306BF
:10174000140605060895092E0394000C11F488234D
:1017500052F0BB0F40F4BF2B11F460FF04C06F5F69
:101760007F4F8F4F9F4F089557FD9058440F551F3F
:1017700059F05F3F71F04795880F97FB991F61F013
:101780009F3F79F087950895121613061406551F8A
:10179000F2CF4695F1DF08C0161617061806991FF6
:1017A000F1CF86957105610508940895E894BB27EB
:1017B00066277727CB0197F908950E94680B08F4F4
:1017C0008FEF08950E94F50B0C94A30B0E94950BCC
:1017D00038F00E949C0B20F0952311F00C948C0B98
:1017E0000C94920B11240C94D70B0E94B40B70F341
:1017F000959FC1F3950F50E0551F629FF001729FB6
:10180000BB27F00DB11D639FAA27F00DB11DAA1FC4
:10181000649F6627B00DA11D661F829F2227B00D11
:10182000A11D621F739FB00DA11D621F839FA00D9C
:10183000611D221F749F3327A00D611D231F849FEC
:10184000600D211D822F762F6A2F11249F57504043
:101850009AF0F1F088234AF0EE0FFF1FBB1F661FBE
:10186000771F881F91505040A9F79E3F510580F087
:101870000C948C0B0C94D70B5F3FE4F3983ED4F39D
:10188000869577956795B795F795E7959F5FC1F72B
:10189000FE2B880F911D9695879597F908950E94C4
:1018A000680B880B990B0895A1E21A2EAA1BBB1B8B
:1018B000FD010DC0AA1FBB1FEE1FFF1FA217B3071C
:1018C000E407F50720F0A21BB30BE40BF50B661F32
:1018D000771F881F991F1A9469F7609570958095F6
:1018E00090959B01AC01BD01CF010895EE0FFF1F44
:1018F0000590F491E02D099481E090E0F8940C9427
:06190000810CF894FFCFFA
:101906000000C8420000C8C2060906000000000028
:101916000000000019028601B0016602E101BF0164
:10192600D30100000000F103860110040F046E616C
:101936006E00696E66006F7666000D0A005265617C
:101946006479002E002D2D2D2D2D20554E49542025
:101956002D2D2D2D2D00323031392E320054656D4E
:1019660070657261747572653A00430046004D3ABF
:10197600006D3A004C696768743A0025004D69634A
:021986003A0025
:00000001FF
