:100000000C945D000C9485000C9485000C94850084
:100010000C9485000C9485000C9485000C9485004C
:100020000C9485000C9485000C9485000C9485003C
:100030000C9485000C9485000C9485000C9485002C
:100040000C946E050C9485000C94DE050C94B80598
:100050000C9485000C9485000C9485000C9485000C
:100060000C9485000C9485000000000024002700FB
:100070002A0000000000250028002B0004040404CE
:100080000404040402020202020203030303030342
:10009000010204081020408001020408102001021F
:1000A00004081020000000080002010000030407FB
:1000B0000000000000000000100611241FBECFEF5A
:1000C000D8E0DEBFCDBF11E0A0E0B1E0ECE3F8E1A5
:1000D00002C005900D92A238B107D9F722E0A2E83C
:1000E000B1E001C01D92A235B207E1F710E0CDE505
:1000F000D0E004C02197FE010E94110CCC35D1073D
:10010000C9F70E945A060C941C0C0C94000090E055
:10011000FC01EC55FF4F2491FC01E057FF4F349157
:10012000FC01E458FF4FE491EE2309F43CC0222384
:1001300039F1233091F038F42130A9F0223001F563
:1001400084B58F7D12C0273091F02830A1F0243083
:10015000B9F4809180008F7D03C0809180008F77FB
:10016000809380000DC084B58F7784BD09C08091D5
:10017000B0008F7703C08091B0008F7D8093B00076
:10018000F0E0EE0FFF1FEE58FF4FA591B4919FB71F
:10019000F894611104C08C913095382302C0EC9121
:1001A0003E2B3C939FBF0895CF93DF9390E0FC01DB
:1001B000E057FF4F2491FC01E458FF4F84918823BE
:1001C00061F190E0880F991FFC01E859FF4FC5913C
:1001D000D491FC01EE58FF4FA591B491611109C073
:1001E0009FB7F8948881209582238883EC912E23F1
:1001F0000BC0623061F49FB7F8948881322F30953C
:1002000083238883EC912E2B2C939FBF06C08FB73E
:10021000F894E8812E2B28838FBFDF91CF9108952A
:100220008E3008F08E508770806480937C008091BF
:100230007A00806480937A0080917A0086FDFCCFFA
:10024000809178002091790090E0922B08953FB73B
:10025000F8948091990190919A01A0919B01B0919D
:100260009C0126B5A89B05C02F3F19F00196A11D42
:10027000B11D3FBFBA2FA92F982F8827820F911D3C
:10028000A11DB11DBC01CD0142E0660F771F881F83
:10029000991F4A95D1F708958F929F92AF92BF927E
:1002A000CF92DF92EF92FF926B017C010E942701B7
:1002B0004B015C01C114D104E104F104F1F00E948E
:1002C0002701DC01CB0188199909AA09BB09883EDD
:1002D0009340A105B10570F321E0C21AD108E108ED
:1002E000F10888EE880E83E0981EA11CB11CC11491
:1002F000D104E104F10419F7DDCFFF90EF90DF9016
:10030000CF90BF90AF909F908F900895CF92DF9243
:10031000EF92FF920F931F93CF93DF936C017A01BB
:100320008B01C0E0D0E0CE15DF0581F0D8016D91E2
:100330008D01D601ED91FC910190F081E02DC60177
:100340000995892B11F02196EECF7E01C701DF912F
:10035000CF911F910F91FF90EF90DF90CF90089574
:10036000FC01538D448D252F30E0842F90E0821BBB
:10037000930B541710F0CF96089501970895FC0140
:10038000918D828D981761F0828DDF01A80FB11DCC
:100390005D968C91928D9F5F9F73928F90E00895F0
:1003A0008FEF9FEF0895FC01918D828D981731F0AA
:1003B000828DE80FF11D858D90E008958FEF9FEFFE
:1003C0000895FC01918D228D892F90E0805C9F4FD4
:1003D000821B91098F73992708958DE991E00E94FE
:1003E000E10121E0892B09F420E0822F0895FC012E
:1003F000848DDF01A80FB11DA35ABF4F2C91848DAE
:1004000090E001968F739927848FA689B7892C93E2
:10041000A089B1898C91837080648C93938D848D35
:10042000981306C00288F389E02D80818F7D808338
:100430000895EF92FF920F931F93CF93DF93EC01F8
:1004400081E0888F9B8D8C8D981305C0E889F98990
:10045000808185FD26C0F62E0B8D10E00F5F1F4FAB
:100460000F731127E02E8C8DE8120CC00FB607FC1D
:10047000FACFE889F989808185FFF5CFCE010E9406
:10048000F701F1CF8B8DFE01E80FF11DE35AFF4F0D
:10049000F0829FB7F8940B8FEA89FB898081806294
:1004A0000AC09FB7F894EE89FF896083E889F989CB
:1004B00080818370806480839FBF81E090E0DF91C2
:1004C000CF911F910F91FF90EF900895CF93DF93FD
:1004D000EC01888D8823C9F0EA89FB89808185FD3C
:1004E00005C0A889B9898C9186FD0FC00FB607FC9D
:1004F000F5CF808185FFF2CFA889B9898C9185FFDE
:10050000EDCFCE010E94F701E7CFDF91CF910895A3
:1005100080E090E0892B29F00E94ED0181110C947C
:1005200000000895CF93DF93EC0160E08E810E947C
:10053000870061E08E810E94870060E08E810E94CA
:1005400087008BE891E00197F1F7DF91CF91089553
:10055000CF92DF92EF92FF920F931F93CF93DF938F
:100560006C017C0187E0E80EF11CC0E0D0E0062FB2
:1005700010E0B8010C2E02C0759567950A94E2F759
:100580006170F70181917F010E9487002196C4303C
:10059000D10579F7C601DF91CF911F910F91FF909F
:1005A000EF90DF90CF900C949202CF92DF92EF9277
:1005B000FF920F931F93CF93DF93EC01F62E642FDE
:1005C0008C810E9487008D818F3F19F060E00E942E
:1005D00087008F850F2D10E084FF25C06E0187E016
:1005E000C80ED11CE12CF12CB8010E2C02C075955F
:1005F00067950A94E2F76170F60181916F010E949C
:100600008700FFEFEF1AFF0A88E0E816F10461F7B0
:10061000CE01DF91CF911F910F91FF90EF90DF906E
:10062000CF900C949202B80184E0759567958A95F5
:10063000E1F7CE010E94A8026F2DCE01DF91CF918C
:100640001F910F91FF90EF90DF90CF900C94A80234
:1006500040E0682F8AE392E00C94D50281E00E948A
:1006600028038BE39FE10197F1F70895CF93DF9380
:10067000823028F0909149029860909349028093CB
:100680004D0210924E0280E480934F0280E18093ED
:10069000500280E58093510261E080913E020E9409
:1006A000D40080913F028F3F19F061E00E94D40096
:1006B00061E0809140020E94D400CAE3D2E09E0132
:1006C0002A5332408091490284FD03C084E090E0C7
:1006D00002C088E090E02196281739072CF461E0E9
:1006E0008E810E94D400EBCF8BE39DE00197F1F760
:1006F00060E080913E020E94870060E080914002AD
:100700000E94870080913F028F3F19F060E00E94B5
:1007100087008091490284FD20C063E08AE392E073
:100720000E94A802CBE4D6E4CE010197F1F763E082
:100730008AE392E00E94A8022197F1F763E08AE33E
:1007400092E00E94A80283E592E00197F1F762E04F
:100750008AE392E00E94A80215C080620E942803EA
:100760008BE496E40197F1F78091490280620E9440
:10077000280383E592E00197F1F7809149028062B6
:100780000E9428038091490280620E94280384E02D
:1007900080934A028CE00E9428030E942E0382E08C
:1007A00080934B0286E0DF91CF910C942803643054
:1007B00008F063E090914D02691710F06FEF690F38
:1007C000E62FF0E0E65CFD4F9489890F80680C9479
:1007D000280382E00E9428038BE39FE10197F1F751
:1007E000089541E00E94D50281E090E008950F93C2
:1007F0001F93CF93DF9388E40E942803C8E0D1E0E1
:1008000000E111E069918AE392E00E94F1030C1784
:100810001D07C1F7DF91CF911F910F9108950895A2
:1008200080E090E008950E94170C6115710579F041
:10083000FB0101900020E9F73197AF01461B570BF0
:10084000DC01ED91FC910280F381E02D099480E0C0
:1008500090E00895BC018AE392E00C9415042F9275
:100860003F924F925F926F927F928F929F92AF9240
:10087000BF92CF92DF92EF92FF920F931F93CF938D
:10088000DF93CDB7DEB7A2970FB6F894DEBF0FBEE9
:10089000CDBF8C014A015B01D22E9A01AB01C5018B
:1008A000B4010E94EA0B882319F06EE271E027C0C0
:1008B00024013501E89477F82FEF3FEF4FE75FE72A
:1008C000C301B2010E94EA0B81110DC02FEF3FEF6F
:1008D0004FE75FE7C301B2010E94200A18161CF41B
:1008E00062E371E00CC02FEF3FEF4FE75FE4C5011B
:1008F000B4010E94780B181634F466E371E0C80165
:100900000E941504BDC02FEF3FEF4FE75FECC5011C
:10091000B4010E94200A87FDF0CF20E030E0A90159
:10092000C501B4010E94200A87FF0FC0D801ED91D4
:10093000FC910190F081E02D6DE2C80109951C0148
:10094000B7FAB094B7F8B09402C0212C312CF12C36
:1009500060E070E080E09FE3DF1441F020E030E0F1
:1009600040E251E40E94250AF394F6CFA5019401D8
:100970000E94B4094B015C010E94970A562E672E13
:10098000782EC92E19A2262F372F482F592F7E01D6
:10099000B1E2EB0EF11CEAA24F2CCA01B9012AE028
:1009A00030E040E050E00E94EF0B605DF7016293A1
:1009B0007F01211531054105510579F7BF01C801B6
:1009C0000E9415047101E80EF91EDD2009F457C0DC
:1009D000652D762D872D9C2D0E94C60A9B01AC01AA
:1009E000C501B4010E94B3094B015C01D801ED912E
:1009F000FC910190F081E02D6EE2C8010995E80EAE
:100A0000F91E20E030E040E251E4C501B4010E944B
:100A10007D0B4B015C010E94970A9B0140E050E076
:100A200019A22AA0342C562E632E742EC52ECA016C
:100A3000B9012AE030E040E050E00E94EF0B605D39
:100A4000F10162931F01211531054105510579F727
:100A5000BF01C8010E941504E80EF91E652D762D10
:100A6000872D9C2D0E94C60A9B01AC01C501B401D3
:100A70000E94B3094B015C01DA94D110C2CFC701C7
:100A8000A2960FB6F894DEBF0FBECDBFDF91CF9117
:100A90001F910F91FF90EF90DF90CF90BF90AF909C
:100AA0009F908F907F906F905F904F903F902F908E
:100AB0000895CF93DF93AB01BC0122E08DE991E073
:100AC0000E942F04EC016AE371E08DE991E00E943D
:100AD00015048C0F9D1FDF91CF9108951F920F92E7
:100AE0000FB60F9211242F933F938F939F93AF9341
:100AF000BF938091950190919601A0919701B0913B
:100B000098013091940123E0230F2D3720F40196B2
:100B1000A11DB11D05C026E8230F0296A11DB11D20
:100B2000209394018093950190939601A09397014F
:100B3000B09398018091990190919A01A0919B01A5
:100B4000B0919C010196A11DB11D809399019093D4
:100B50009A01A0939B01B0939C01BF91AF919F918B
:100B60008F913F912F910F900FBE0F901F9018956E
:100B70001F920F920FB60F9211242F933F934F9312
:100B80005F936F937F938F939F93AF93BF93EF93F5
:100B9000FF938DE991E00E94F701FF91EF91BF91E2
:100BA000AF919F918F917F916F915F914F913F9105
:100BB0002F910F900FBE0F901F9018951F920F92BC
:100BC0000FB60F9211242F938F939F93EF93FF9360
:100BD000E091AD01F091AE018081E091B301F0911F
:100BE000B40182FD12C090818091B6018F5F8F7336
:100BF0002091B701821751F0E091B601F0E0E35681
:100C0000FE4F958F8093B60101C08081FF91EF91D7
:100C10009F918F912F910F900FBE0F901F9018955D
:100C2000EDE9F1E01382128288EE93E0A0E0B0E0FB
:100C300084839583A683B78384E191E09183808345
:100C400085EC90E09587848784EC90E09787868791
:100C500080EC90E0918B808B81EC90E0938B828B89
:100C600082EC90E0958B848B86EC90E0978B868B62
:100C7000118E128E138E148EEAE3F2E0138212822A
:100C800086E291E09183808387E084838FEF858380
:100C900086E0868385E0878384E0808783E08187A0
:100CA00082E082871386148615861686178681E071
:100CB0000C943603789484B5826084BD84B58160D9
:100CC00084BD85B5826085BD85B5816085BD809117
:100CD0006E00816080936E0010928100809181008F
:100CE0008260809381008091810081608093810087
:100CF000809180008160809380008091B100846049
:100D00008093B1008091B00081608093B0008091A9
:100D10007A00846080937A0080917A008260809368
:100D20007A0080917A00816080937A0080917A00C5
:100D3000806880937A001092C10060E08EE00E948B
:100D4000D40060E08FE00E94D40060E080E10E9467
:100D5000D400E091AD01F091AE0182E08083E0919A
:100D6000A901F091AA011082E091AB01F091AC01D0
:100D70008FEC80831092B501E091B101F091B20146
:100D800086E08083E091AF01F091B00180818061C5
:100D90008083E091AF01F091B00180818860808311
:100DA000E091AF01F091B001808180688083E09193
:100DB000AF01F091B00180818F7D808382E00E943D
:100DC00036030E94E9030E942E038DE391E00E9406
:100DD0002A0464EF71E080E090E00E944C0160E042
:100DE00085E00E94D70383E491E00E942A0464EF27
:100DF00071E080E090E00E944C0160E086E00E949B
:100E0000D70383E491E00E942A0464EF71E080E05C
:100E100090E00E944C0160E087E00E94D70383E4E9
:100E200091E00E942A040E942E0385E491E00E9432
:100E30002A0461E085E00E94D70386E591E00E94E4
:100E40002A0464EF71E080E090E00E944C010E946F
:100E50002E038FE00E941001BC01990F880B990BA3
:100E60000E94C80A20E030E040EA50E40E947D0B76
:100E700020E030E040E85AE30E947D0B6B017C01EA
:100E800020E030E040E950E40E94780B87FF3FC04B
:100E900020E030E040E850E4C701B6010E94200A9B
:100EA00087FF0AC020E030E040E650E4C701B60109
:100EB0000E94780B181674F12AE939E949E550E4E3
:100EC000C701B6010E94200A87FF0AC02AE939E952
:100ED00049E350E4C701B6010E94780B1816ECF004
:100EE00023E333E343E350E4C701B6010E94200A41
:100EF00087FF16C020E030E040E050E4C701B601B3
:100F00000E94780B181664F4C4E0D0E00BC0C1E076
:100F1000D0E008C0C2E0D0E005C0C3E0D0E002C02D
:100F2000C0E0D0E08EE00E941001BC01990F880B58
:100F3000990B0E94C80A20E030E040EA50E40E9489
:100F40007D0B20E030E048EC52E40E947D0B20E075
:100F500030E040E85AE30E947D0B6B017C01609316
:100F6000900170939101809392019093930180E19D
:100F70000E941001BC01990F880B990B0E94C80AAE
:100F800020E030E040EA50E40E947D0B20E030E0B9
:100F900040E85AE30E947D0B60938C0170938D01B1
:100FA00080938E0190938F0181E10E941001BC011A
:100FB000990F880B990B0E94C80A20E030E040EAA4
:100FC00050E40E947D0B20E030E040E85AE30E94AC
:100FD0007D0B609388017093890180938A019093BF
:100FE0008B0120910401309105014091060150913F
:100FF0000701C701B6010E94780B181644F4C0928D
:101000000401D0920501E0920601F09207012091BF
:101010000001309101014091020150910301C7018B
:10102000B6010E94200A87FF08C0C0920001D0923A
:101030000101E0920201F0920301C230D10509F0F2
:1010400063C00E942E0360E080E00E94D7038DE51C
:1010500091E00E942A0460E082E00E94D703409160
:10106000040150910501609106017091070122E091
:101070008AE392E00E942F0461E080E00E94D7039F
:1010800080E691E00E942A0461E082E00E94D7039A
:1010900040910001509101016091020170910301A2
:1010A00022E08AE392E00E942F040E94F70360E0AE
:1010B00087E00E94D70361E08AE392E00E94F10397
:1010C0000E94F70361E087E00E94D70361E08AE3B2
:1010D00092E00E94F10360E088E00E94D70383E67B
:1010E00091E00E942A0461E088E00E94D70383E631
:1010F00091E00E942A0468EE73E080E090E00E9494
:101100004C010E942E0316C02197A1F48091860104
:1011100090918701833091052CF40196909387017B
:10112000809386010E942E0368EC70E080E090E0DE
:101130000E944C018091860190918701039721F4D0
:10114000109287011092860180918601909187010B
:10115000892B09F06CC00E94E90385E691E00E94AA
:101160002A040E94F70361E085E00E94D70361E052
:101170008AE392E00E94F1030E94F70361E08EE0AF
:101180000E94D70361E08AE392E00E94F103C090DD
:101190009001D0909101E0909201F090930120E0B5
:1011A00030E040E151E4C701B6010E947D0B20E030
:1011B00030E040E253E40E94B40920E030E040EA2D
:1011C00050E40E94250A609382017093830180930A
:1011D00084019093850161E080E00E94D70322E0C2
:1011E000B701A6018AE392E00E942F0461E086E045
:1011F0000E94D70383E691E00E942A0461E089E01F
:101200000E94D70340918201509183016091840133
:101210007091850122E08AE392E00E942F0461E050
:101220008FE00E94D70382E791E00E942A04809118
:101230008601909187010197F9F40E94E90384E700
:1012400091E00E942A0460E088E00E94D703409168
:1012500088015091890160918A0170918B0122E08F
:101260008AE392E00E942F0460E08FE00E94D7039F
:101270008BE791E00E942A0480918601909187017A
:101280000297F9F40E94E9038DE791E00E942A0495
:1012900060E088E00E94D70340918C0150918D015D
:1012A00060918E0170918F0122E08AE392E00E94AA
:1012B0002F0460E08FE00E94D7038BE791E00E944B
:1012C0002A048DE991E00E94E101181619060CF03C
:1012D00047C08DE991E00E94BF01813649F46091D9
:1012E000900170919101809192019091930136C08B
:1012F000823649F46091820170918301809184016A
:10130000909185012BC0833649F46091040170915E
:101310000501809106019091070120C0843649F4AF
:10132000609100017091010180910201909103018F
:1013300015C0853649F460918801709189018091CA
:101340008A0190918B010AC0863651F460918C011C
:1013500070918D0180918E0190918F010E945905AD
:101360000E94880276CD5058BB27AA270E94CB093D
:101370000C943E0B0E94300B38F00E94370B20F08B
:1013800039F49F3F19F426F40C942D0B0EF4E095DC
:10139000E7FB0C94270BE92F0E944F0B58F3BA1769
:1013A000620773078407950720F079F4A6F50C947B
:1013B000710B0EF4E0950B2EBA2FA02D0B01B90185
:1013C00090010C01CA01A0011124FF27591B99F0BB
:1013D000593F50F4503E68F11A16F040A22F232FC7
:1013E000342F4427585FF3CF469537952795A79517
:1013F000F0405395C9F77EF41F16BA0B620B730BBE
:10140000840BBAF09150A1F0FF0FBB1F661F771F2E
:10141000881FC2F70EC0BA0F621F731F841F48F4E3
:10142000879577956795B795F7959E3F08F0B0CF6C
:101430009395880F08F09927EE0F97958795089553
:101440000E94030B08F481E008950E94390A0C946D
:101450003E0B0E94370B58F00E94300B40F029F4ED
:101460005F3F29F00C94270B51110C94720B0C94D4
:101470002D0B0E944F0B68F39923B1F3552391F381
:10148000951B550BBB27AA2762177307840738F0F3
:101490009F5F5F4F220F331F441FAA1FA9F335D050
:1014A0000E2E3AF0E0E832D091505040E695001C04
:1014B000CAF72BD0FE2F29D0660F771F881FBB1FBE
:1014C000261737074807AB07B0E809F0BB0B802D9C
:1014D000BF01FF2793585F4F3AF09E3F510578F0C8
:1014E0000C94270B0C94720B5F3FE4F3983ED4F3FB
:1014F000869577956795B795F7959F5FC9F7880F9C
:10150000911D9695879597F90895E1E0660F771FED
:10151000881FBB1F621773078407BA0720F0621B7E
:10152000730B840BBA0BEE1F88F7E09508950E94A9
:10153000570B88F09F5798F0B92F9927B751B0F003
:10154000E1F0660F771F881F991F1AF0BA95C9F747
:1015500014C0B13091F00E94710BB1E008950C9469
:10156000710B672F782F8827B85F39F0B93FCCF31C
:10157000869577956795B395D9F73EF490958095C4
:10158000709561957F4F8F4F9F4F0895E89409C0E4
:1015900097FB3EF490958095709561957F4F8F4FA6
:1015A0009F4F9923A9F0F92F96E9BB279395F695BC
:1015B000879577956795B795F111F8CFFAF4BB0F3A
:1015C00011F460FF1BC06F5F7F4F8F4F9F4F16C09E
:1015D000882311F096E911C0772321F09EE8872F28
:1015E000762F05C0662371F096E8862F70E060E0E4
:1015F0002AF09A95660F771F881FDAF7880F96955D
:10160000879597F90895990F0008550FAA0BE0E800
:10161000FEEF16161706E807F907C0F012161306B4
:10162000E407F50798F0621B730B840B950B39F4F4
:101630000A2661F0232B242B252B21F408950A265A
:1016400009F4A140A6958FEF811D811D089597F99A
:101650009F6780E870E060E008959FEF80EC089558
:1016600000240A9416161706180609060895002481
:101670000A9412161306140605060895092E0394FB
:10168000000C11F4882352F0BB0F40F4BF2B11F46F
:1016900060FF04C06F5F7F4F8F4F9F4F089557FDCE
:1016A0009058440F551F59F05F3F71F04795880FD0
:1016B00097FB991F61F09F3F79F087950895121667
:1016C00013061406551FF2CF4695F1DF08C0161613
:1016D00017061806991FF1CF8695710561050894C4
:1016E0000895E894BB2766277727CB0197F90895DB
:1016F0000E94030B08F48FEF08950E94900B0C9446
:101700003E0B0E94300B38F00E94370B20F09523DF
:1017100011F00C94270B0C942D0B11240C94720BCC
:101720000E944F0B70F3959FC1F3950F50E0551F2A
:10173000629FF001729FBB27F00DB11D639FAA2726
:10174000F00DB11DAA1F649F6627B00DA11D661F75
:10175000829F2227B00DA11D621F739FB00DA11D96
:10176000621F839FA00D611D221F749F3327A00D50
:10177000611D231F849F600D211D822F762F6A2FEC
:1017800011249F5750409AF0F1F088234AF0EE0F51
:10179000FF1FBB1F661F771F881F91505040A9F77E
:1017A0009E3F510580F00C94270B0C94720B5F3F09
:1017B000E4F3983ED4F3869577956795B795F795BA
:1017C000E7959F5FC1F7FE2B880F911D9695879532
:1017D00097F908950E94030B880B990B0895A1E2D5
:1017E0001A2EAA1BBB1BFD010DC0AA1FBB1FEE1F9B
:1017F000FF1FA217B307E407F50720F0A21BB30BE6
:10180000E40BF50B661F771F881F991F1A9469F761
:1018100060957095809590959B01AC01BD01CF01BD
:101820000895EE0FFF1F0590F491E02D099481E0DB
:0C18300090E0F8940C941C0CF894FFCF8E
:10183C000000C8420000C8C20609060000000000F3
:10184C000000000019028601B0016602E101BF012F
:10185C00D30100000000F103860110040F046E6137
:10186C006E00696E66006F7666000D0A0052656147
:10187C006479002E002D2D2D2D2D20554E495420F0
:10188C002D2D2D2D2D00323031392E32004D3A00B8
:10189C006D3A00430054656D7065726174757265C4
:1018AC003A0046004C696768743A0025004D69633C
:0218BC003A00F0
:107E0000112484B714BE81FFF0D085E080938100F7
:107E100082E08093C00088E18093C10086E0809377
:107E2000C20080E18093C4008EE0C9D0259A86E02C
:107E300020E33CEF91E0309385002093840096BBD3
:107E4000B09BFECF1D9AA8958150A9F7CC24DD24C4
:107E500088248394B5E0AB2EA1E19A2EF3E0BF2EE7
:107E6000A2D0813461F49FD0082FAFD0023811F036
:107E7000013811F484E001C083E08DD089C08234E0
:107E800011F484E103C0853419F485E0A6D080C0E4
:107E9000853579F488D0E82EFF2485D0082F10E0AE
:107EA000102F00270E291F29000F111F8ED06801E7
:107EB0006FC0863521F484E090D080E0DECF843638
:107EC00009F040C070D06FD0082F6DD080E0C81688
:107ED00080E7D80618F4F601B7BEE895C0E0D1E017
:107EE00062D089930C17E1F7F0E0CF16F0E7DF06D8
:107EF00018F0F601B7BEE89568D007B600FCFDCFD4
:107F0000A601A0E0B1E02C9130E011968C91119780
:107F100090E0982F8827822B932B1296FA010C0160
:107F200087BEE89511244E5F5F4FF1E0A038BF0790
:107F300051F7F601A7BEE89507B600FCFDCF97BE46
:107F4000E89526C08437B1F42ED02DD0F82E2BD052
:107F50003CD0F601EF2C8F010F5F1F4F84911BD097
:107F6000EA94F801C1F70894C11CD11CFA94CF0C13
:107F7000D11C0EC0853739F428D08EE10CD085E9AC
:107F80000AD08FE07ACF813511F488E018D01DD067
:107F900080E101D065CF982F8091C00085FFFCCF94
:107FA0009093C60008958091C00087FFFCCF809118
:107FB000C00084FD01C0A8958091C6000895E0E648
:107FC000F0E098E1908380830895EDDF803219F02E
:107FD00088E0F5DFFFCF84E1DECF1F93182FE3DFCA
:107FE0001150E9F7F2DF1F91089580E0E8DFEE27F6
:047FF000FF270994CA
:027FFE00040479
:0400000300007E007B
:00000001FF
