:100000000C945D000C9485000C9485000C94850084
:100010000C9485000C9485000C9485000C9485004C
:100020000C9485000C9485000C9485000C9485003C
:100030000C9485000C9485000C9485000C9485002C
:100040000C945B070C9485000C9414030C94EE0242
:100050000C9485000C9485000C9485000C9485000C
:100060000C9485000C9485000000000024002700FB
:100070002A0000000000250028002B0004040404CE
:100080000404040402020202020203030303030342
:10009000010204081020408001020408102001021F
:1000A00004081020000000080002010000030407FB
:1000B0000000000000000000330B11241FBECFEF32
:1000C000D8E0DEBFCDBF11E0A0E0B1E0E0EDFBE1A4
:1000D00002C005900D92AC38B107D9F722E0ACE828
:1000E000B1E001C01D92A836B207E1F710E0CDE5FE
:1000F000D0E004C02197FE010E94DB0DCC35D10772
:10010000C9F70E94A5070C94E60D0C940000CF924D
:10011000DF92EF92FF920F931F93CF93DF936C01C7
:100120007A018B01C0E0D0E0CE15DF0581F0D80167
:100130006D918D01D601ED91FC910190F081E02D42
:10014000C6010995892B11F02196EECF7E01C701DA
:10015000DF91CF911F910F91FF90EF90DF90CF90A3
:100160000895FC01538D448D252F30E0842F90E0BD
:10017000821B930B541710F0CF96089501970895A2
:10018000FC01918D828D981761F0828DDF01A80F9F
:10019000B11D5D968C91928D9F5F9F73928F90E0C1
:1001A00008958FEF9FEF0895FC01918D828D981730
:1001B00031F0828DE80FF11D858D90E008958FEF6D
:1001C0009FEF0895FC01918D228D892F90E0805C36
:1001D0009F4F821B91098F73992708958AEA91E0B6
:1001E0000E94E20021E0892B09F420E0822F08958B
:1001F000FC01848DDF01A80FB11DA35ABF4F2C91C4
:10020000848D90E001968F739927848FA689B78992
:100210002C93A089B1898C91837080648C93938D89
:10022000848D981306C00288F389E02D80818F7D2C
:1002300080830895EF92FF920F931F93CF93DF93E4
:10024000EC0181E0888F9B8D8C8D981305C0E88927
:10025000F989808185FD26C0F62E0B8D10E00F5F99
:100260001F4F0F731127E02E8C8DE8120CC00FB6B4
:1002700007FCFACFE889F989808185FFF5CFCE01A7
:100280000E94F800F1CF8B8DFE01E80FF11DE35ABB
:10029000FF4FF0829FB7F8940B8FEA89FB8980812A
:1002A00080620AC09FB7F894EE89FF896083E8896D
:1002B000F98980818370806480839FBF81E090E0B2
:1002C000DF91CF911F910F91FF90EF900895CF9301
:1002D000DF93EC01888D8823C9F0EA89FB8980814E
:1002E00085FD05C0A889B9898C9186FD0FC00FB620
:1002F00007FCF5CF808185FFF2CFA889B9898C9161
:1003000085FFEDCFCE010E94F800E7CFDF91CF91BE
:10031000089580E090E0892B29F00E94EE00811181
:100320000C9400000895089580E090E008950E94E4
:10033000E10DCF93DF93EC0160E08E810E94E00538
:1003400061E08E810E94E00560E08E810E94E00500
:100350008BE891E00197F1F7DF91CF910895611556
:10036000710579F0FB0101900020E9F73197AF01A9
:10037000461B570BDC01ED91FC910280F381E02DCF
:10038000099480E090E008952F923F924F925F92FF
:100390006F927F928F929F92AF92BF92CF92DF9295
:1003A000EF92FF920F931F93CF93DF93CDB7DEB7FA
:1003B000A2970FB6F894DEBF0FBECDBF8C014A01E5
:1003C0005B01D22E9A01AB01C501B4010E94B40DAC
:1003D000882319F066E371E027C024013501E89411
:1003E00077F82FEF3FEF4FE75FE7C301B2010E94BD
:1003F000B40D81110DC02FEF3FEF4FE75FE7C30151
:10040000B2010E94EA0B18161CF46AE371E00CC0FA
:100410002FEF3FEF4FE75FE4C501B4010E94420DAB
:10042000181634F46EE371E0C8010E94AF01BDC03C
:100430002FEF3FEF4FE75FECC501B4010E94EA0BDD
:1004400087FDF0CF20E030E0A901C501B4010E9492
:10045000EA0B87FF0FC0D801ED91FC910190F0816C
:10046000E02D6DE2C80109951C01B7FAB094B7F808
:10047000B09402C0212C312CF12C60E070E080E0BF
:100480009FE3DF1441F020E030E040E251E40E94BD
:10049000EF0BF394F6CFA50194010E947E0B4B0164
:1004A0005C010E94610C562E672E782EC92E19A26F
:1004B000262F372F482F592F7E01B1E2EB0EF11C6A
:1004C000EAA24F2CCA01B9012AE030E040E050E036
:1004D0000E94B90D605DF70162937F01211531051E
:1004E0004105510579F7BF01C8010E94AF017101B3
:1004F000E80EF91EDD2009F457C0652D762D872DF5
:100500009C2D0E94900C9B01AC01C501B4010E947E
:100510007D0B4B015C01D801ED91FC910190F081C4
:10052000E02D6EE2C8010995E80EF91E20E030E0EA
:1005300040E251E4C501B4010E94470D4B015C014A
:100540000E94610C9B0140E050E019A22AA0342CCB
:10055000562E632E742EC52ECA01B9012AE030E052
:1005600040E050E00E94B90D605DF10162931F010F
:10057000211531054105510579F7BF01C8010E94D8
:10058000AF01E80EF91E652D762D872D9C2D0E945A
:10059000900C9B01AC01C501B4010E947D0B4B0185
:1005A0005C01DA94D110C2CFC701A2960FB6F894BD
:1005B000DEBF0FBECDBFDF91CF911F910F91FF9096
:1005C000EF90DF90CF90BF90AF909F908F907F90F3
:1005D0006F905F904F903F902F9008951F920F92D1
:1005E0000FB60F9211242F933F934F935F936F9306
:1005F0007F938F939F93AF93BF93EF93FF938AEA79
:1006000091E00E94F800FF91EF91BF91AF919F910F
:100610008F917F916F915F914F913F912F910F90AB
:100620000FBE0F901F9018951F920F920FB60F924A
:1006300011242F938F939F93EF93FF93E091BA012F
:10064000F091BB018081E091C001F091C10182FD78
:1006500012C090818091C3018F5F8F732091C4017C
:10066000821751F0E091C301F0E0E655FE4F958FFF
:100670008093C30101C08081FF91EF919F918F9181
:100680002F910F900FBE0F901F901895CF92DF9271
:10069000EF92FF920F931F93CF93DF936C017C0136
:1006A00087E0E80EF11CC0E0D0E0062F10E0B801B2
:1006B0000C2E02C0759567950A94E2F76170F701F8
:1006C00081917F010E94E0052196C430D10579F720
:1006D000C601DF91CF911F910F91FF90EF90DF90B6
:1006E000CF900C949901CF92DF92EF92FF920F93EB
:1006F0001F93CF93DF93EC01F62E642F8C810E9421
:10070000E0058D818F3F19F060E00E94E0058F8544
:100710000F2D10E084FF25C06E0187E0C80ED11CAC
:10072000E12CF12CB8010E2C02C0759567950A9446
:10073000E2F76170F60181916F010E94E005FFEF21
:10074000EF1AFF0A88E0E816F10461F7CE01DF91A5
:10075000CF911F910F91FF90EF90DF90CF900C946D
:100760009901B80184E0759567958A95E1F7CE0106
:100770000E9446036F2DCE01DF91CF911F910F9103
:10078000FF90EF90DF90CF900C94460341E00E94E1
:10079000730381E090E00895CF92DF92EF92FF9291
:1007A000C0909401D0909501E0909601F09097014F
:1007B0002AE037ED43EA5EE3C701B6010E94420D2D
:1007C00061E087FD05C080E00E94B10562E004C0E1
:1007D00080E00E94B10563E087E492E00E94C603D6
:1007E0002AE037ED43E25FE3C701B6010E94420D04
:1007F00061E087FD05C081E00E94B10562E004C0B0
:1008000081E00E94B10563E087E492E00E94C603A4
:100810002AE037ED43EA5FE3C701B6010E94420DCB
:1008200061E087FD05C082E00E94B10562E004C07E
:1008300082E00E94B10563E087E492E00E94C60373
:100840002DEC3CEC4CEC5FE3C701B6010E94420D7D
:1008500061E087FD05C083E00E94B10562E004C04D
:1008600083E00E94B10563E087E492E00E94C60342
:100870002FE832EC45EF5FE3C701B6010E94420D5D
:1008800061E087FD05C084E00E94B10562E004C01C
:1008900084E00E94B10563E087E492E00E94C60311
:1008A00029E23CE54FE050E4C701B6010E94420D49
:1008B00061E087FD05C085E00E94B10562E004C0EB
:1008C00085E00E94B10563E087E492E00E94C603E0
:1008D0002AE037ED43E250E4C701B6010E94420D21
:1008E00061E087FD05C086E00E94B10562E004C0BA
:1008F00086E00E94B10563E087E492E00E94C603AF
:100900002CEE31E548E350E4C701B6010E94420DE8
:1009100061E087FD05C087E00E94B10562E004C088
:1009200087E00E94B10563E087E492E00E94C6037D
:100930002DEC3CEC4CE450E4C701B6010E94420DA2
:1009400061E087FD05C088E00E94B10562E004C057
:1009500088E00E94B10563E087E492E00E94C6034C
:100960002EEA37E441E650E4C701B6010E94420D89
:1009700061E087FD05C089E00E94B10562E004C026
:1009800089E00E94B10563E087E492E00E94C6031B
:100990002FE832EC45E750E4C701B6010E94420D52
:1009A00061E087FD05C08AE00E94B10562E004C0F5
:1009B0008AE00E94B10563E087E492E00E94C603EA
:1009C00028EB3EE145E850E4C701B6010E94420D24
:1009D00061E087FD05C08BE00E94B10562E004C0C4
:1009E0008BE00E94B10563E087E492E00E94C603B9
:1009F00029E23CE54FE850E4C701B6010E94420DF0
:100A000061E087FD05C08CE00E94B10562E004C092
:100A10008CE00E94B10563E087E492E00E94C60387
:100A20002AE939E949E950E4C701B6010E94420DBB
:100A300061E087FD05C08DE00E94B10562E004C061
:100A40008DE00E94B10563E087E492E00E94C60356
:100A500020E030E040EA50E4C701B6010E94420DB8
:100A600061E087FD05C08EE00E94B10562E004C030
:100A70008EE00E94B10563E087E492E00E94C60325
:100A800020E030E040EA50E4C701B6010E94420D88
:100A900061E087FD05C08FE00E94B10562E004C0FF
:100AA0008FE00E94B10563E087E492E0FF90EF9051
:100AB000DF90CF900C94C6033FB7F8948091640206
:100AC00090916502A0916602B091670226B5A89B3D
:100AD00005C02F3F19F00196A11DB11D3FBFBA2FD0
:100AE000A92F982F8827820F911DA11DB11DBC0130
:100AF000CD0142E0660F771F881F991F4A95D1F7F5
:100B0000089540E0682F87E492E00C94730381E03D
:100B10000E9481058BE39FE10197F1F708950F9300
:100B20001F93CF93DF938B01877028E0829FC001D2
:100B3000112480640E948105E801085F1F4F6991BC
:100B400087E492E00E94C603C017D107C1F7DF9186
:100B5000CF911F910F910895BC0187E492E00C940E
:100B6000AF01643008F063E090915A02691710F009
:100B70006FEF690FE62FF0E0E95BFD4F9489890F75
:100B800080680C94810582E00E9481058BE39FE1DF
:100B90000197F1F70895CF93DF93AB01BC0122E0F9
:100BA0008AEA91E00E94C401EC0169E871E08AEAF6
:100BB00091E00E94AF018C0F9D1FDF91CF910895AE
:100BC00090E0FC01EC55FF4F2491FC01E057FF4FF2
:100BD0003491FC01E458FF4FE491EE2309F43CC04A
:100BE000222339F1233091F038F42130A9F022305A
:100BF00001F584B58F7D12C0273091F02830A1F027
:100C00002430B9F4809180008F7D03C080918000F2
:100C10008F77809380000DC084B58F7784BD09C025
:100C20008091B0008F7703C08091B0008F7D80935A
:100C3000B000F0E0EE0FFF1FEE58FF4FA591B4910A
:100C40009FB7F894611104C08C913095382302C08D
:100C5000EC913E2B3C939FBF0895CF93DF9390E0A0
:100C6000FC01E057FF4F2491FC01E458FF4F8491B1
:100C7000882361F190E0880F991FFC01E859FF4F2C
:100C8000C591D491FC01EE58FF4FA591B49161112B
:100C900009C09FB7F8948881209582238883EC91BE
:100CA0002E230BC0623061F49FB7F8948881322FF5
:100CB000309583238883EC912E2B2C939FBF06C005
:100CC0008FB7F894E8812E2B28838FBFDF91CF91C7
:100CD0000895CF93DF93823028F090915602986068
:100CE0009093560280935A0210925B0280E48093A4
:100CF0005C0280E180935D0280E580935E0261E0AA
:100D000080914B020E942D0680914C028F3F19F07A
:100D100061E00E942D0661E080914D020E942D0647
:100D2000C7E4D2E09E01275432408091560284FDF0
:100D300003C084E090E002C088E090E0219628178C
:100D400039072CF461E08E810E942D06EBCF8BE3F6
:100D50009DE00197F1F760E080914B020E94E00571
:100D600060E080914D020E94E00580914C028F3F2F
:100D700019F060E00E94E0058091560284FD20C0D9
:100D800063E087E492E00E944603CBE4D6E4CE0120
:100D90000197F1F763E087E492E00E944603219710
:100DA000F1F763E087E492E00E94460383E592E076
:100DB0000197F1F762E087E492E00E94460315C0D4
:100DC00080620E9481058BE496E40197F1F780919F
:100DD000560280620E94810583E592E00197F1F757
:100DE0008091560280620E94810580915602806245
:100DF0000E94810584E0809357028CE00E94810567
:100E00000E94870582E08093580286E0DF91CF91AF
:100E10000C9481058E3008F08E508770806480932A
:100E20007C0080917A00806480937A0080917A00BF
:100E300086FDFCCF809178002091790090E0922B84
:100E400008958F929F92AF92BF92CF92DF92EF92CE
:100E5000FF926B017C010E945C054B015C01C11497
:100E6000D104E104F104F1F00E945C05DC01CB0146
:100E700088199909AA09BB09883E9340A105B105C3
:100E800070F321E0C21AD108E108F10888EE880E5B
:100E900083E0981EA11CB11CC114D104E104F1042B
:100EA00019F7DDCFFF90EF90DF90CF90BF90AF901C
:100EB0009F908F9008951F920F920FB60F9211245A
:100EC0002F933F938F939F93AF93BF938091600233
:100ED00090916102A0916202B091630230915F0231
:100EE00023E0230F2D3720F40196A11DB11D05C06D
:100EF00026E8230F0296A11DB11D20935F02809367
:100F0000600290936102A0936202B09363028091A9
:100F1000640290916502A0916602B0916702019609
:100F2000A11DB11D8093640290936502A093660297
:100F3000B0936702BF91AF919F918F913F912F9195
:100F40000F900FBE0F901F901895789484B5826013
:100F500084BD84B5816084BD85B5826085BD85B55D
:100F6000816085BD80916E00816080936E001092DB
:100F70008100809181008260809381008091810056
:100F800081608093810080918000816080938000E7
:100F90008091B10084608093B1008091B000816045
:100FA0008093B00080917A00846080937A00809171
:100FB0007A00826080937A0080917A0081608093C9
:100FC0007A0080917A00806880937A001092C10044
:100FD00060E08EE00E942D0660E08FE00E942D060A
:100FE00060E080E10E942D0660E081E10E942D0614
:100FF000E091BA01F091BB0182E08083E091B601FB
:10100000F091B7011082E091B801F091B9018FEC35
:1010100080831092C201E091BE01F091BF0186E091
:101020008083E091BC01F091BD018081806180836B
:10103000E091BC01F091BD01808188608083E091E6
:10104000BC01F091BD01808180688083E091BC018A
:10105000F091BD0180818F7D808382E00E946906CE
:101060000E94C3050E94870582E491E00E94AC05BE
:1010700064EF71E080E090E00E94210760E085E08D
:101080000E94B10588E491E00E94AC0564EF71E034
:1010900080E090E00E94210760E086E00E94B105B8
:1010A00088E491E00E94AC0564EF71E080E090E09C
:1010B0000E94210760E087E00E94B10588E491E08A
:1010C0000E94AC050E9487058AE491E00E94AC056D
:1010D00061E085E00E94B1058BE591E00E94AC05DE
:1010E00064EF71E080E090E00E9421070E94870594
:1010F00068E071E081E00E948F0560E071E082E0CD
:101100000E948F056CE871E083E00E948F058FE0FC
:101110000E940A07BC01990F880B990B0E94920C40
:1011200020E030E040EA50E40E94470D20E030E04B
:1011300040E85AE30E94470D6B017C0120E030E05B
:1011400040E950E40E94420D87FF3FC020E030E0BC
:1011500040E850E4C701B6010E94EA0B87FF0AC0CD
:1011600020E030E040E650E4C701B6010E94420DA5
:10117000181674F12AE939E949E550E4C701B601C6
:101180000E94EA0B87FF0AC02AE939E949E350E4E3
:10119000C701B6010E94420D1816ECF023E333E3B9
:1011A00043E350E4C701B6010E94EA0B87FF16C073
:1011B00020E030E040E050E4C701B6010E94420D5B
:1011C000181664F4C4E0D0E00BC0C1E0D0E008C061
:1011D000C2E0D0E005C0C3E0D0E002C0C0E0D0E093
:1011E0008EE00E940A07BC01990F880B990B0E94A0
:1011F000920C20E030E040EA50E40E94470D20E0ED
:1012000030E048EC52E40E94470D20E030E040E836
:101210005AE30E94470D6B017C016093A601709315
:10122000A7018093A8019093A90180E10E940A0779
:10123000BC01990F880B990B0E94920C20E030E0C2
:1012400040EA50E40E94470D20E030E040E85AE3D5
:101250000E94470D6093A2017093A3018093A401A3
:101260009093A50181E10E940A07BC01990F880BA8
:10127000990B0E94920C20E030E040EA50E40E947A
:10128000470D20E030E040E85AE30E94470D6093AC
:101290009E0170939F018093A0019093A1012091E2
:1012A0001401309115014091160150911701C701A9
:1012B000B6010E94420D181644F4C0921401D09257
:1012C0001501E0921601F092170120911001309162
:1012D00011014091120150911301C701B6010E9402
:1012E000EA0B87FF08C0C0921001D0921101E09272
:1012F0001201F0921301C230D10509F05FC00E94C3
:10130000870560E080E00E94B10582E691E00E94DE
:10131000AC0560E082E00E94B1054091140150915B
:101320001501609116017091170122E087E492E0A7
:101330000E94C40161E080E00E94B10585E691E071
:101340000E94AC0561E082E00E94B105409110016D
:1013500050911101609112017091130122E087E414
:1013600092E00E94C40160E087E00E94B10561E064
:1013700087E492E00E94C60361E087E00E94B10525
:1013800061E087E492E00E94C60360E088E00E948A
:10139000B10588E691E00E94AC0561E088E00E941A
:1013A000B10588E691E00E94AC0568EE73E080E04C
:1013B00090E00E9421070E94870516C02197A1F4A2
:1013C00080919C0190919D01833091052CF40196B0
:1013D00090939D0180939C010E94870568EC70E0CA
:1013E00080E090E00E94210780919C0190919D01F6
:1013F000039721F410929D0110929C0180919C0111
:1014000090919D01892B09F068C00E94C3058AE66E
:1014100091E00E94AC0561E085E00E94B10561E0C9
:1014200087E492E00E94C60361E08EE00E94B1056D
:1014300061E087E492E00E94C603C090A601D090CC
:10144000A701E090A801F090A90120E030E040E180
:1014500051E4C701B6010E94470D20E030E040E2B0
:1014600053E40E947E0B20E030E040EA50E40E940A
:10147000EF0B609398017093990180939A01909378
:101480009B0161E080E00E94B10522E0B701A60166
:1014900087E492E00E94C40161E086E00E94B10509
:1014A00088E691E00E94AC0561E089E00E94B10508
:1014B000409198015091990160919A0170919B011E
:1014C00022E087E492E00E94C40161E08FE00E9484
:1014D000B10587E791E00E94AC0580919C01909155
:1014E0009D01019789F50E94C30589E791E00E945B
:1014F000AC0560E088E00E94B10540919E015091EA
:101500009F016091A0017091A10122E087E492E027
:101510000E94C40160E08FE00E94B10580E891E084
:101520000E94AC0580919E0190919F01A091A00125
:10153000B091A1018093940190939501A09396019D
:10154000B09397010E94CC0380919C0190919D01E2
:10155000029789F50E94C30582E891E00E94AC05DC
:1015600060E088E00E94B1054091A2015091A30182
:101570006091A4017091A50122E087E492E00E94AD
:10158000C40160E08FE00E94B10580E891E00E9414
:10159000AC058091A2019091A301A091A401B0910A
:1015A000A5018093940190939501A0939601B09327
:1015B00097010E94CC036AE070E080E090E00E9416
:1015C00021078AEA91E00E94E200181619060CF041
:1015D00047C08AEA91E00E94C000813649F46091D8
:1015E000A6017091A7018091A8019091A90136C030
:1015F000823649F4609198017091990180919A0125
:1016000090919B012BC0833649F460911401709135
:101610001501809116019091170120C0843649F47C
:10162000609110017091110180911201909113014C
:1016300015C0853649F460919E0170919F0180919B
:10164000A0019091A1010AC0863651F46091A201D7
:101650007091A3018091A4019091A5010E94CB05F6
:101660000E94890154CDEAEAF1E01382128288EEE9
:1016700093E0A0E0B0E084839583A683B7838CE1F8
:1016800091E09183808385EC90E09587848784EC5A
:1016900090E09787868780EC90E0918B808B81EC3F
:1016A00090E0938B828B82EC90E0958B848B86EC20
:1016B00090E0978B868B118E128E138E148EE7E43A
:1016C000F2E0138212828EE291E09183808387E0C0
:1016D00084838FEF858386E0868385E0878384E03B
:1016E000808783E0818782E082871386148615864F
:1016F0001686178681E00C9469065058BB27AA27E6
:101700000E94950B0C94080D0E94FA0C38F00E9470
:10171000010D20F039F49F3F19F426F40C94F70CD6
:101720000EF4E095E7FB0C94F10CE92F0E94190DE3
:1017300058F3BA17620773078407950720F079F406
:10174000A6F50C943B0D0EF4E0950B2EBA2FA02DB0
:101750000B01B90190010C01CA01A0011124FF275E
:10176000591B99F0593F50F4503E68F11A16F04059
:10177000A22F232F342F4427585FF3CF4695379558
:101780002795A795F0405395C9F77EF41F16BA0B1D
:10179000620B730B840BBAF09150A1F0FF0FBB1FCB
:1017A000661F771F881FC2F70EC0BA0F621F731F14
:1017B000841F48F4879577956795B795F7959E3F71
:1017C00008F0B0CF9395880F08F09927EE0F979502
:1017D000879508950E94CD0C08F481E008950E9439
:1017E000030C0C94080D0E94010D58F00E94FA0C95
:1017F00040F029F45F3F29F00C94F10C51110C9446
:101800003C0D0C94F70C0E94190D68F39923B1F369
:10181000552391F3951B550BBB27AA276217730716
:10182000840738F09F5F5F4F220F331F441FAA1FAA
:10183000A9F335D00E2E3AF0E0E832D09150504066
:10184000E695001CCAF72BD0FE2F29D0660F771F14
:10185000881FBB1F261737074807AB07B0E809F0FA
:10186000BB0B802DBF01FF2793585F4F3AF09E3F7F
:10187000510578F00C94F10C0C943C0D5F3FE4F3AF
:10188000983ED4F3869577956795B795F7959F5FC2
:10189000C9F7880F911D9695879597F90895E1E00E
:1018A000660F771F881FBB1F621773078407BA076D
:1018B00020F0621B730B840BBA0BEE1F88F7E095C8
:1018C00008950E94210D88F09F5798F0B92F99270D
:1018D000B751B0F0E1F0660F771F881F991F1AF01B
:1018E000BA95C9F714C0B13091F00E943B0DB1E038
:1018F00008950C943B0D672F782F8827B85F39F037
:10190000B93FCCF3869577956795B395D9F73EF4B3
:1019100090958095709561957F4F8F4F9F4F08955B
:10192000E89409C097FB3EF4909580957095619579
:101930007F4F8F4F9F4F9923A9F0F92F96E9BB272F
:101940009395F695879577956795B795F111F8CFAB
:10195000FAF4BB0F11F460FF1BC06F5F7F4F8F4F16
:101960009F4F16C0882311F096E911C0772321F00C
:101970009EE8872F762F05C0662371F096E8862FA4
:1019800070E060E02AF09A95660F771F881FDAF7FB
:10199000880F9695879597F90895990F0008550F28
:1019A000AA0BE0E8FEEF16161706E807F907C0F0E5
:1019B00012161306E407F50798F0621B730B840BED
:1019C000950B39F40A2661F0232B242B252B21F4C7
:1019D00008950A2609F4A140A6958FEF811D811D67
:1019E000089597F99F6780E870E060E008959FEFA1
:1019F00080EC089500240A941616170618060906A6
:101A0000089500240A941216130614060506089574
:101A1000092E0394000C11F4882352F0BB0F40F4FC
:101A2000BF2B11F460FF04C06F5F7F4F8F4F9F4F3C
:101A3000089557FD9058440F551F59F05F3F71F0BE
:101A40004795880F97FB991F61F09F3F79F0879525
:101A50000895121613061406551FF2CF4695F1DFAE
:101A600008C0161617061806991FF1CF869571053E
:101A7000610508940895E894BB2766277727CB0172
:101A800097F908950E94CD0C08F48FEF08950E94F5
:101A90005A0D0C94080D0E94FA0C38F00E94010DAA
:101AA00020F0952311F00C94F10C0C94F70C1124F8
:101AB0000C943C0D0E94190D70F3959FC1F3950F86
:101AC00050E0551F629FF001729FBB27F00DB11DC2
:101AD000639FAA27F00DB11DAA1F649F6627B00D52
:101AE000A11D661F829F2227B00DA11D621F739F3B
:101AF000B00DA11D621F839FA00D611D221F749F49
:101B00003327A00D611D231F849F600D211D822F8F
:101B1000762F6A2F11249F5750409AF0F1F08823B6
:101B20004AF0EE0FFF1FBB1F661F771F881F9150E3
:101B30005040A9F79E3F510580F00C94F10C0C9495
:101B40003C0D5F3FE4F3983ED4F386957795679517
:101B5000B795F795E7959F5FC1F7FE2B880F911D0D
:101B60009695879597F908950E94CD0C880B990B4F
:101B70000895A1E21A2EAA1BBB1BFD010DC0AA1FCE
:101B8000BB1FEE1FFF1FA217B307E407F50720F0E6
:101B9000A21BB30BE40BF50B661F771F881F991F61
:101BA0001A9469F760957095809590959B01AC01AA
:101BB000BD01CF010895EE0FFF1F0590F491E02DB8
:101BC000099481E090E0F8940C94E60DF894FFCF2E
:101BD0000E0E0E0E0E0E0E0E060906000000000080
:101BE0000000C8420000C8C2000000001A018700BF
:101BF000B1006701E200C000D40000000000C6038D
:101C00008700940193016E616E00696E66006F76C5
:101C100066005265616479002E002D2D2D2D2D203A
:101C2000554E4954202D2D2D2D2D00323031392E79
:101C300032004D3A006D3A00430054656D70657294
:101C400061747572653A0046004C696768743A00C1
:0C1C500025004E6F6973653A000D0A0014
:107E0000112484B714BE81FFF0D085E080938100F7
:107E100082E08093C00088E18093C10086E0809377
:107E2000C20080E18093C4008EE0C9D0259A86E02C
:107E300020E33CEF91E0309385002093840096BBD3
:107E4000B09BFECF1D9AA8958150A9F7CC24DD24C4
:107E500088248394B5E0AB2EA1E19A2EF3E0BF2EE7
:107E6000A2D0813461F49FD0082FAFD0023811F036
:107E7000013811F484E001C083E08DD089C08234E0
:107E800011F484E103C0853419F485E0A6D080C0E4
:107E9000853579F488D0E82EFF2485D0082F10E0AE
:107EA000102F00270E291F29000F111F8ED06801E7
:107EB0006FC0863521F484E090D080E0DECF843638
:107EC00009F040C070D06FD0082F6DD080E0C81688
:107ED00080E7D80618F4F601B7BEE895C0E0D1E017
:107EE00062D089930C17E1F7F0E0CF16F0E7DF06D8
:107EF00018F0F601B7BEE89568D007B600FCFDCFD4
:107F0000A601A0E0B1E02C9130E011968C91119780
:107F100090E0982F8827822B932B1296FA010C0160
:107F200087BEE89511244E5F5F4FF1E0A038BF0790
:107F300051F7F601A7BEE89507B600FCFDCF97BE46
:107F4000E89526C08437B1F42ED02DD0F82E2BD052
:107F50003CD0F601EF2C8F010F5F1F4F84911BD097
:107F6000EA94F801C1F70894C11CD11CFA94CF0C13
:107F7000D11C0EC0853739F428D08EE10CD085E9AC
:107F80000AD08FE07ACF813511F488E018D01DD067
:107F900080E101D065CF982F8091C00085FFFCCF94
:107FA0009093C60008958091C00087FFFCCF809118
:107FB000C00084FD01C0A8958091C6000895E0E648
:107FC000F0E098E1908380830895EDDF803219F02E
:107FD00088E0F5DFFFCF84E1DECF1F93182FE3DFCA
:107FE0001150E9F7F2DF1F91089580E0E8DFEE27F6
:047FF000FF270994CA
:027FFE00040479
:0400000300007E007B
:00000001FF
