:100000000C945D000C9485000C9485000C94850084
:100010000C9485000C9485000C9485000C9485004C
:100020000C9485000C9485000C9485000C9485003C
:100030000C9485000C9485000C9485000C9485002C
:100040000C94D6060C9485000C9419030C94F302BE
:100050000C9485000C9485000C9485000C9485000C
:100060000C9485000C9485000000000024002700FB
:100070002A0000000000250028002B0004040404CE
:100080000404040402020202020203030303030342
:10009000010204081020408001020408102001021F
:1000A00004081020000000080002010000030407FB
:1000B0000000000000000000FE0A11241FBECFEF68
:1000C000D8E0DEBFCDBF11E0A0E0B1E0E6E6FBE1A5
:1000D00002C005900D92AE38B107D9F722E0AEE824
:1000E000B1E001C01D92AC36B207E1F710E0CDE5FA
:1000F000D0E004C02197FE010E94A60DCC35D107A7
:10010000C9F70E9420070C94B10D0C940000CF9207
:10011000DF92EF92FF920F931F93CF93DF936C01C7
:100120007A018B01C0E0D0E0CE15DF0581F0D80167
:100130006D918D01D601ED91FC910190F081E02D42
:10014000C6010995892B11F02196EECF7E01C701DA
:10015000DF91CF911F910F91FF90EF90DF90CF90A3
:100160000895FC01538D448D252F30E0842F90E0BD
:10017000821B930B541710F0CF96089501970895A2
:10018000FC01918D828D981761F0828DDF01A80F9F
:10019000B11D5D968C91928D9F5F9F73928F90E0C1
:1001A00008958FEF9FEF0895FC01918D828D981730
:1001B00031F0828DE80FF11D858D90E008958FEF6D
:1001C0009FEF0895FC01918D228D892F90E0805C36
:1001D0009F4F821B91098F73992708958EEA91E0B2
:1001E0000E94E20021E0892B09F420E0822F08958B
:1001F000FC01848DDF01A80FB11DA35ABF4F2C91C4
:10020000848D90E001968F739927848FA689B78992
:100210002C93A089B1898C91837080648C93938D89
:10022000848D981306C00288F389E02D80818F7D2C
:1002300080830895EF92FF920F931F93CF93DF93E4
:10024000EC0181E0888F9B8D8C8D981305C0E88927
:10025000F989808185FD26C0F62E0B8D10E00F5F99
:100260001F4F0F731127E02E8C8DE8120CC00FB6B4
:1002700007FCFACFE889F989808185FFF5CFCE01A7
:100280000E94F800F1CF8B8DFE01E80FF11DE35ABB
:10029000FF4FF0829FB7F8940B8FEA89FB8980812A
:1002A00080620AC09FB7F894EE89FF896083E8896D
:1002B000F98980818370806480839FBF81E090E0B2
:1002C000DF91CF911F910F91FF90EF900895CF9301
:1002D000DF93EC01888D8823C9F0EA89FB8980814E
:1002E00085FD05C0A889B9898C9186FD0FC00FB620
:1002F00007FCF5CF808185FFF2CFA889B9898C9161
:1003000085FFEDCFCE010E94F800E7CFDF91CF91BE
:10031000089580E090E0892B29F00E94EE00811181
:100320000C9400000895089580E090E008950E94E4
:10033000AC0DCF93DF93EC0160E08E810E945B05F2
:1003400061E08E810E945B0560E08E810E945B050A
:100350008BE891E00197F1F7DF91CF910895611556
:10036000710579F0FB0101900020E9F73197AF01A9
:10037000461B570BDC01ED91FC910280F381E02DCF
:10038000099480E090E008958F929F92AF92BF927F
:10039000EF92FF920F931F93CF93DF93CDB7DEB70A
:1003A000A1970FB6F894DEBF0FBECDBF7C01FA0156
:1003B000CB0119A2223008F42AE08E010F5D1F4FF5
:1003C000822E912CA12CB12CBF01A50194010E9479
:1003D000840DF901CA01015011096A3014F4605DFD
:1003E00001C0695CD8016C93232B242B252B61F76A
:1003F000B801C7010E94AF01A1960FB6F894DEBF05
:100400000FBECDBFDF91CF911F910F91FF90EF9065
:10041000BF90AF909F908F9008957F928F929F9200
:10042000AF92BF92CF92DF92EF92FF920F931F9302
:10043000CF93DF938C016A017B01722E9A01AB018D
:10044000C701B6010E947F0D882319F066E371E0B1
:1004500027C046015701E894B7F82FEF3FEF4FE769
:100460005FE7C501B4010E947F0D81110DC02FEF20
:100470003FEF4FE75FE7C501B4010E94B50B1816C7
:100480001CF46AE371E00CC02FEF3FEF4FE75FE42D
:10049000C701B6010E940D0D181694F46EE371E0C9
:1004A000C801DF91CF911F910F91FF90EF90DF90E6
:1004B000CF90BF90AF909F908F907F900C94AF01A2
:1004C0002FEF3FEF4FE75FECC701B6010E94B50B7E
:1004D00087FDE4CF20E030E0A901C701B6010E940A
:1004E000B50B87FF0FC0D801ED91FC910190F08111
:1004F000E02D6DE2C8010995EC01F7FAF094F7F8E8
:10050000F09402C0C0E0D0E0B12C60E070E080E088
:100510009FE37B1441F020E030E040E251E40E9490
:10052000BA0BB394F6CFA70196010E94490B6B0159
:100530007C010E942C0C4B015C012AE0AB01BC0148
:10054000C8010E94C401C80FD91F7720E9F1C50175
:10055000B4010E945B0C9B01AC01C701B6010E9473
:10056000480B6B017C01D801ED91FC910190F08169
:10057000E02D6EE2C8010995C80FD91F20E030E0D8
:1005800040E251E4C701B6010E94120D4B015C012B
:100590000E942C0C6B01E12CF12C2AE0B701A60182
:1005A000C8010E94C401C80FD91FC701B6010E942B
:1005B0005B0C9B01AC01C501B4010E94480B6B01AF
:1005C0007C017A947110DACFCE01DF91CF911F9127
:1005D0000F91FF90EF90DF90CF90BF90AF909F90E2
:1005E0008F907F9008951F920F920FB60F92112453
:1005F0002F933F934F935F936F937F938F939F932B
:10060000AF93BF93EF93FF938EEA91E00E94F800BF
:10061000FF91EF91BF91AF919F918F917F916F91DA
:100620005F914F913F912F910F900FBE0F901F90B0
:1006300018951F920F920FB60F9211242F938F933C
:100640009F93EF93FF93E091BE01F091BF018081F2
:10065000E091C401F091C50182FD12C090818091AA
:10066000C7018F5F8F732091C801821751F0E0910D
:10067000C701F0E0E255FE4F958F8093C70101C09E
:100680008081FF91EF919F918F912F910F900FBEDD
:100690000F901F901895CF92DF92EF92FF920F93D9
:1006A0001F93CF93DF936C017C0187E0E80EF11C70
:1006B000C0E0D0E0062F10E0B8010C2E02C0759506
:1006C00067950A94E2F76170F70181917F010E94BA
:1006D0005B052196C430D10579F7C601DF91CF9132
:1006E0001F910F91FF90EF90DF90CF900C949901A4
:1006F000CF92DF92EF92FF920F931F93CF93DF93EE
:10070000EC01F62E642F8C810E945B058D818F3F5A
:1007100019F060E00E945B058F850F2D10E084FFCB
:1007200025C06E0187E0C80ED11CE12CF12CB80168
:100730000E2C02C0759567950A94E2F76170F60178
:1007400081916F010E945B05FFEFEF1AFF0A88E0BD
:10075000E816F10461F7CE01DF91CF911F910F915F
:10076000FF90EF90DF90CF900C949901B80184E056
:10077000759567958A95E1F7CE010E944B036F2D21
:10078000CE01DF91CF911F910F91FF90EF90DF90FD
:10079000CF900C944B0341E00E94780381E090E0FD
:1007A0000895CF93DF93C0919601D091970161E0B6
:1007B00080E0209721F00E942C0562E003C00E9497
:1007C0002C0563E08BE492E00E94CB0361E081E0C2
:1007D000C230D10520F00E942C0562E003C00E94C7
:1007E0002C0563E08BE492E00E94CB0361E082E0A1
:1007F000C330D10520F00E942C0562E003C00E94A6
:100800002C0563E08BE492E00E94CB0361E083E07F
:10081000C430D10520F00E942C0562E003C00E9484
:100820002C0563E08BE492E00E94CB0361E084E05E
:10083000C530D10520F00E942C0562E003C00E9463
:100840002C0563E08BE492E00E94CB0361E085E03D
:10085000C630D10520F00E942C0562E003C00E9442
:100860002C0563E08BE492E00E94CB0361E086E01C
:10087000C730D10520F00E942C0562E003C00E9421
:100880002C0563E08BE492E00E94CB0361E087E0FB
:10089000C830D10520F00E942C0562E003C00E9400
:1008A0002C0563E08BE492E00E94CB0361E088E0DA
:1008B000C930D10520F00E942C0562E003C00E94DF
:1008C0002C0563E08BE492E00E94CB0361E089E0B9
:1008D000CA30D10520F00E942C0562E003C00E94BE
:1008E0002C0563E08BE492E00E94CB0361E08AE098
:1008F000CB30D10520F00E942C0562E003C00E949D
:100900002C0563E08BE492E00E94CB0361E08BE076
:10091000CC30D10520F00E942C0562E003C00E947B
:100920002C0563E08BE492E00E94CB0361E08CE055
:10093000CD30D10520F00E942C0562E003C00E945A
:100940002C0563E08BE492E00E94CB0361E08DE034
:10095000CE30D10520F00E942C0562E003C00E9439
:100960002C0563E08BE492E00E94CB0361E08EE013
:10097000CF30D10520F00E942C0562E003C00E9418
:100980002C0563E08BE492E00E94CB0361E08FE0F2
:10099000609720F00E942C0562E003C00E942C05A5
:1009A00063E08BE492E0DF91CF910C94CB033FB7EF
:1009B000F8948091680290916902A0916A02B091C6
:1009C0006B0226B5A89B05C02F3F19F00196A11D0B
:1009D000B11D3FBFBA2FA92F982F8827820F911DD5
:1009E000A11DB11DBC01CD0142E0660F771F881F1C
:1009F000991F4A95D1F7089540E0682F8BE492E063
:100A00000C94780381E00E94FC048BE39FE1019742
:100A1000F1F708950F931F93CF93DF938B018770A6
:100A200028E0829FC001112480640E94FC04E80138
:100A3000085F1F4F69918BE492E00E94CB03C017BF
:100A4000D107C1F7DF91CF911F910F910895BC019C
:100A50008BE492E00C94AF01643008F063E0909175
:100A60005E02691710F06FEF690FE62FF0E0E55BAB
:100A7000FD4F9489890F80680C94FC0482E00E94E9
:100A8000FC048BE39FE10197F1F70895CF93DF9387
:100A9000AB01BC0122E08EEA91E00E940D02EC0164
:100AA0006BE871E08EEA91E00E94AF018C0F9D1F10
:100AB000DF91CF91089590E0FC01EC55FF4F249118
:100AC000FC01E057FF4F3491FC01E458FF4FE491E3
:100AD000EE2309F43CC0222339F1233091F038F49D
:100AE0002130A9F0223001F584B58F7D12C0273066
:100AF00091F02830A1F02430B9F4809180008F7DEE
:100B000003C0809180008F77809380000DC084B5F2
:100B10008F7784BD09C08091B0008F7703C080912A
:100B2000B0008F7D8093B000F0E0EE0FFF1FEE5815
:100B3000FF4FA591B4919FB7F894611104C08C91B7
:100B40003095382302C0EC913E2B3C939FBF089513
:100B5000CF93DF9390E0FC01E057FF4F2491FC011D
:100B6000E458FF4F8491882361F190E0880F991F2A
:100B7000FC01E859FF4FC591D491FC01EE58FF4F9D
:100B8000A591B491611109C09FB7F894888120950F
:100B900082238883EC912E230BC0623061F49FB7CF
:100BA000F8948881322F309583238883EC912E2B03
:100BB0002C939FBF06C08FB7F894E8812E2B288313
:100BC0008FBFDF91CF910895CF93DF93823028F0CC
:100BD00090915A02986090935A0280935E0210920C
:100BE0005F0280E48093600280E18093610280E58F
:100BF0008093620261E080914F020E94A80580917B
:100C000050028F3F19F061E00E94A80561E08091D9
:100C100051020E94A805CBE4D2E09E012B54324041
:100C200080915A0284FD03C084E090E002C088E015
:100C300090E02196281739072CF461E08E810E94FC
:100C4000A805EBCF8BE39DE00197F1F760E0809181
:100C50004F020E945B0560E0809151020E945B059B
:100C6000809150028F3F19F060E00E945B058091F7
:100C70005A0284FD20C063E08BE492E00E944B03A3
:100C8000CBE4D6E4CE010197F1F763E08BE492E088
:100C90000E944B032197F1F763E08BE492E00E94FE
:100CA0004B0383E592E00197F1F762E08BE492E079
:100CB0000E944B0315C080620E94FC048BE496E402
:100CC0000197F1F780915A0280620E94FC0483E54B
:100CD00092E00197F1F780915A0280620E94FC0431
:100CE00080915A0280620E94FC0484E080935B023F
:100CF0008CE00E94FC040E94020582E080935C026A
:100D000086E0DF91CF910C94FC048E3008F08E5079
:100D10008770806480937C0080917A0080648093E7
:100D20007A0080917A0086FDFCCF80917800209136
:100D3000790090E0922B08958F929F92AF92BF928C
:100D4000CF92DF92EF92FF926B017C010E94D70459
:100D50004B015C01C114D104E104F104F1F00E94E3
:100D6000D704DC01CB0188199909AA09BB09883E7F
:100D70009340A105B10570F321E0C21AD108E10842
:100D8000F10888EE880E83E0981EA11CB11CC114E6
:100D9000D104E104F10419F7DDCFFF90EF90DF906B
:100DA000CF90BF90AF909F908F9008951F920F9219
:100DB0000FB60F9211242F933F938F939F93AF936E
:100DC000BF938091640290916502A0916602B091F8
:100DD00067023091630223E0230F2D3720F4019640
:100DE000A11DB11D05C026E8230F0296A11DB11D4E
:100DF000209363028093640290936502A09366023D
:100E0000B09367028091680290916902A0916A0292
:100E1000B0916B020196A11DB11D80936802909361
:100E20006902A0936A02B0936B02BF91AF919F9148
:100E30008F913F912F910F900FBE0F901F9018959B
:100E4000789484B5826084BD84B5816084BD85B5A5
:100E5000826085BD85B5816085BD80916E008160B1
:100E600080936E0010928100809181008260809357
:100E70008100809181008160809381008091800059
:100E80008160809380008091B10084608093B10084
:100E90008091B00081608093B00080917A0084607E
:100EA00080937A0080917A00826080937A008091AA
:100EB0007A00816080937A0080917A0080688093C4
:100EC0007A001092C10060E08EE00E94A80560E008
:100ED0008FE00E94A80560E080E10E94A80560E024
:100EE00081E10E94A805E091BE01F091BF0182E07E
:100EF0008083E091BA01F091BB011082E091BC01C6
:100F0000F091BD018FEC80831092C601E091C20187
:100F1000F091C30186E08083E091C001F091C101AE
:100F2000808180618083E091C001F091C101808166
:100F300088608083E091C001F091C1018081806868
:100F40008083E091C001F091C10180818F7D808319
:100F500082E00E94E4050E943E050E94020582E4B0
:100F600091E00E94270564EF71E080E090E00E942C
:100F70009C0660E085E00E942C0588E491E00E94D8
:100F8000270564EF71E080E090E00E949C0660E03D
:100F900086E00E942C0588E491E00E94270564EF1A
:100FA00071E080E090E00E949C0660E087E00E9493
:100FB0002C0588E491E00E94270564EF71E080E051
:100FC00090E00E949C060E9402058AE491E00E9443
:100FD000270561E085E00E942C058BE591E00E94E9
:100FE000270564EF71E080E090E00E949C060E947B
:100FF000020568E071E081E00E940A0560E071E0AE
:1010000082E00E940A056EE871E083E00E940A0512
:101010008FE00E948506BC01990F880B990B0E94F6
:101020005D0C20E030E040EA50E40E94120D20E028
:1010300030E040E85AE30E94120D6B017C012AE97E
:1010400039E949E850E40E940D0D87FF3FC02AE9C5
:1010500039E949E750E4C701B6010E94B50B87FFA3
:101060000AC020E030E040E650E4C701B6010E942B
:101070000D0D181674F120E030E040E450E4C70193
:10108000B6010E94B50B87FF0AC023E333E343E3B5
:1010900050E4C701B6010E940D0D1816ECF02DECBE
:1010A0003CEC4CE250E4C701B6010E94B50B87FF4F
:1010B00016C023E333E343E150E4C701B6010E94C5
:1010C0000D0D181664F4C4E0D0E00BC0C1E0D0E010
:1010D00008C0C2E0D0E005C0C3E0D0E002C0C0E07C
:1010E000D0E08EE00E948506BC01990F880B990B19
:1010F0000E945D0C20E030E040EA50E40E94120DB6
:1011000020E030E048EC52E40E94120D20E030E094
:1011100040E85AE30E94120D6B017C016093AA0122
:101120007093AB018093AC019093AD0180E10E947C
:101130008506BC01990F880B990B0E945D0C20E07D
:1011400030E040EA50E40E94120D20E030E040E838
:101150005AE30E94120D4B015C016093A60170934B
:10116000A7018093A8019093A90181E10E948506BF
:10117000BC01990F880B990B0E945D0C20E030E0B8
:1011800040EA50E40E94120D20E030E040E85AE3CB
:101190000E94120D2B013C016093A2017093A301E8
:1011A0008093A4019093A50120E030E048EC52E444
:1011B000C501B4010E94120D20E030E040E450E48B
:1011C0000E94BA0B0E942C0C7093A1016093A001A5
:1011D00020E030E040EA50E4C301B2010E94480B35
:1011E00020E030E040EA51EC0E94120D0E942C0CED
:1011F00070939F0160939E0120911401309115011D
:101200004091160150911701C701B6010E940D0DC2
:10121000181644F4C0921401D0921501E092160100
:10122000F0921701209110013091110140911201AB
:1012300050911301C701B6010E94B50B87FF08C08A
:10124000C0921001D0921101E0921201F0921301AC
:10125000C230D10509F05FC00E94020560E080E065
:101260000E942C0582E691E00E94270560E082E062
:101270000E942C05409114015091150160911601B6
:101280007091170122E08BE492E00E940D0261E070
:1012900080E00E942C0585E691E00E94270561E030
:1012A00082E00E942C054091100150911101609143
:1012B00012017091130122E08BE492E00E940D0272
:1012C00060E087E00E942C0561E08BE492E00E94E0
:1012D000CB0361E087E00E942C0561E08BE492E0A3
:1012E0000E94CB0360E088E00E942C0588E691E034
:1012F0000E94270561E088E00E942C0588E691E0C5
:101300000E94270560ED77E080E090E00E949C0657
:101310000E94020516C02197A1F480919C01909132
:101320009D018330910528F4019690939D0180934F
:101330009C010E94020568EC70E080E090E00E9451
:101340009C0680919C0190919D01039721F410923D
:101350009D0110929C0180919C0190919D01892B8F
:1013600009F068C00E943E058AE691E00E942705C8
:1013700061E085E00E942C0561E08BE492E00E9430
:10138000CB0361E08EE00E942C0561E08BE492E0EB
:101390000E94CB03C090AA01D090AB01E090AC01B9
:1013A000F090AD0120E030E040E151E4C701B6012A
:1013B0000E94120D20E030E040E253E40E94490B0D
:1013C00020E030E040EA50E40E94BA0B60939801BC
:1013D0007093990180939A0190939B0161E080E062
:1013E0000E942C0522E0B701A6018BE492E00E9446
:1013F0000D0261E086E00E942C0588E691E00E94E3
:10140000270561E089E00E942C05409198015091E8
:10141000990160919A0170919B0122E08BE492E026
:101420000E940D0261E08FE00E942C0587E791E0A9
:101430000E94270580919C0190919D01019709F0E0
:101440003FC00E943E0589E791E00E94270560E0C9
:1014500088E00E942C0540919E0150919F0160E020
:1014600070E02AE08BE492E00E94C40160E08BE02F
:101470000E942C0581E891E00E94270520E030E0E1
:1014800040EA50E46091A2017091A3018091A4010F
:101490009091A5010E94480B20E030E040E450EC20
:1014A0000E94120D20E030E040E85FE30E94490B0B
:1014B0000E942C0C70939701609396010E94D103B7
:1014C00080919C0190919D010297C9F50E943E0573
:1014D00083E891E00E94270560E088E00E942C05E7
:1014E0004091A0015091A10160E070E02AE08BE4FE
:1014F00092E00E94C40160E08BE00E942C0581E82C
:1015000091E00E94270520E030E040EA50E460913D
:10151000A6017091A7018091A8019091A9010E9454
:10152000120D20E030E040E85FE30E94490B0E948A
:101530002C0C70939701609396010E94D10364E193
:1015400070E080E090E00E949C060E9402058EEA16
:1015500091E00E94E200181619060CF04CC08EEAC9
:1015600091E00E94C000813649F46091AA01709117
:10157000AB018091AC019091AD0120C0823649F45D
:10158000609198017091990180919A0190919B01CD
:1015900015C0833649F46091140170911501809152
:1015A0001601909117010AC0843659F46091100118
:1015B0007091110180911201909113010E944605D2
:1015C0001AC0853629F440919E0150919F0106C0B2
:1015D000863689F44091A0015091A10160E070E04D
:1015E0002AE08EEA91E00E94C4016BE871E08EEA85
:1015F00091E00E94AF010E9489010ACDEEEAF1E07C
:101600001382128288EE93E0A0E0B0E08483958399
:10161000A683B7838CE191E09183808385EC90E091
:101620009587848784EC90E09787868780EC90E0AC
:10163000918B808B81EC90E0938B828B82EC90E09D
:10164000958B848B86EC90E0978B868B118E128E17
:10165000138E148EEBE4F2E0138212828EE291E09C
:101660009183808387E084838FEF858386E0868300
:1016700085E0878384E0808783E0818782E08287BA
:101680001386148615861686178681E00C94E40569
:101690005058BB27AA270E94600B0C94D30C0E94C1
:1016A000C50C38F00E94CC0C20F039F49F3F19F49F
:1016B00026F40C94C20C0EF4E095E7FB0C94BC0CE1
:1016C000E92F0E94E40C58F3BA17620773078407E6
:1016D000950720F079F4A6F50C94060D0EF4E0952C
:1016E0000B2EBA2FA02D0B01B90190010C01CA01DC
:1016F000A0011124FF27591B99F0593F50F4503E87
:1017000068F11A16F040A22F232F342F4427585F78
:10171000F3CF469537952795A795F0405395C9F790
:101720007EF41F16BA0B620B730B840BBAF0915048
:10173000A1F0FF0FBB1F661F771F881FC2F70EC0E7
:10174000BA0F621F731F841F48F4879577956795BA
:10175000B795F7959E3F08F0B0CF9395880F08F0A6
:101760009927EE0F9795879508950E94980C08F495
:1017700081E008950E94CE0B0C94D30C0E94CC0CF7
:1017800058F00E94C50C40F029F45F3F29F00C94FA
:10179000BC0C51110C94070D0C94C20C0E94E40C6B
:1017A00068F39923B1F3552391F3951B550BBB2790
:1017B000AA2762177307840738F09F5F5F4F220FD5
:1017C000331F441FAA1FA9F335D00E2E3AF0E0E8CC
:1017D00032D091505040E695001CCAF72BD0FE2F16
:1017E00029D0660F771F881FBB1F261737074807AA
:1017F000AB07B0E809F0BB0B802DBF01FF27935862
:101800005F4F3AF09E3F510578F00C94BC0C0C945D
:10181000070D5F3FE4F3983ED4F38695779567957F
:10182000B795F7959F5FC9F7880F911D9695879596
:1018300097F90895E1E0660F771F881FBB1F6217B5
:1018400073078407BA0720F0621B730B840BBA0B73
:10185000EE1F88F7E09508950E94EC0C88F09F57E2
:1018600098F0B92F9927B751B0F0E1F0660F771FC4
:10187000881F991F1AF0BA95C9F714C0B13091F0BA
:101880000E94060DB1E008950C94060D672F782F85
:101890008827B85F39F0B93FCCF38695779567957F
:1018A000B395D9F73EF490958095709561957F4FEB
:1018B0008F4F9F4F0895E89409C097FB3EF4909591
:1018C0008095709561957F4F8F4F9F4F9923A9F019
:1018D000F92F96E9BB279395F695879577956795A8
:1018E000B795F111F8CFFAF4BB0F11F460FF1BC0EC
:1018F0006F5F7F4F8F4F9F4F16C0882311F096E97F
:1019000011C0772321F09EE8872F762F05C066232C
:1019100071F096E8862F70E060E02AF09A95660FE5
:10192000771F881FDAF7880F9695879597F908959E
:10193000990F0008550FAA0BE0E8FEEF16161706E0
:10194000E807F907C0F012161306E407F50798F048
:10195000621B730B840B950B39F40A2661F0232B61
:10196000242B252B21F408950A2609F4A140A695DD
:101970008FEF811D811D089597F99F6780E870E0C2
:1019800060E008959FEF80EC089500240A941616F5
:10199000170618060906089500240A94121613065D
:1019A000140605060895092E0394000C11F48823EB
:1019B00052F0BB0F40F4BF2B11F460FF04C06F5F07
:1019C0007F4F8F4F9F4F089557FD9058440F551FDD
:1019D00059F05F3F71F04795880F97FB991F61F0B1
:1019E0009F3F79F087950895121613061406551F28
:1019F000F2CF4695F1DF08C0161617061806991F94
:101A0000F1CF86957105610508940895E894BB2788
:101A100066277727CB0197F908950E94980C08F460
:101A20008FEF08950E94250D0C94D30C0E94C50CD5
:101A300038F00E94CC0C20F0952311F00C94BC0CD3
:101A40000C94C20C11240C94070D0E94E40C70F34A
:101A5000959FC1F3950F50E0551F629FF001729F53
:101A6000BB27F00DB11D639FAA27F00DB11DAA1F62
:101A7000649F6627B00DA11D661F829F2227B00DAF
:101A8000A11D621F739FB00DA11D621F839FA00D3A
:101A9000611D221F749F3327A00D611D231F849F8A
:101AA000600D211D822F762F6A2F11249F575040E1
:101AB0009AF0F1F088234AF0EE0FFF1FBB1F661F5C
:101AC000771F881F91505040A9F79E3F510580F025
:101AD0000C94BC0C0C94070D5F3FE4F3983ED4F3D8
:101AE000869577956795B795F795E7959F5FC1F7C9
:101AF000FE2B880F911D9695879597F908950E9462
:101B0000980C880B990B0895A1E21A2EAA1BBB1BF7
:101B1000FD010DC0AA1FBB1FEE1FFF1FA217B307B9
:101B2000E407F50720F0A21BB30BE40BF50B661FCF
:101B3000771F881F991F1A9469F760957095809593
:101B400090959B01AC01BD01CF010895EE0FFF1FE1
:101B50000590F491E02D099481E090E0F8940C94C4
:061B6000B10DF894FFCF67
:101B66000E0E0E0E0E0E0E0E0609060000000000EA
:101B76000000C8420000C8C2000000001A01870029
:101B8600B1006701E200C000D40000000000CB03F2
:101B96008700940193016E616E00696E66006F7630
:101BA60066005265616479002E002D2D2D2D2D20A5
:101BB600554E4954202D2D2D2D2D00323031392EE4
:101BC60032004D3A006D3A00430054656D706572FF
:101BD60061747572653A0046004C696768743A200C
:0E1BE6000025004E6F6973653A20000D0A005D
:107800000C94343C0C94513C0C94513C0C94513CE1
:107810000C94513C0C94513C0C94513C0C94513CB4
:107820000C94513C0C94513C0C94513C0C94513CA4
:107830000C94513C0C94513C0C94513C0C94513C94
:107840000C94513C0C94513C0C94513C0C94513C84
:107850000C94513C0C94513C0C94513C0C94513C74
:107860000C94513C0C94513C11241FBECFEFD8E036
:10787000DEBFCDBF11E0A0E0B1E0ECE9FFE702C060
:1078800005900D92A230B107D9F712E0A2E0B1E065
:1078900001C01D92AD30B107E1F70E942D3D0C945F
:1078A000CC3F0C94003C982F959595959595959582
:1078B000905D8F708A307CF0282F295A8091C0000B
:1078C00085FFFCCF9093C6008091C00085FFFCCF60
:1078D0002093C6000895282F205DF0CF982F809127
:1078E000C00085FFFCCF9093C6000895EF92FF92F1
:1078F0000F931F93EE24FF2487018091C00087FD22
:1079000017C00894E11CF11C011D111D81E4E8164B
:1079100082E4F8068FE0080780E0180770F3E09132
:107920000401F091050109958091C00087FFE9CF1E
:107930008091C6001F910F91FF90EF9008950E94D3
:10794000763C982F8091C00085FFFCCF9093C600B5
:1079500091362CF490330CF09053892F089597555D
:10796000892F08951F930E949F3C182F0E949F3CCF
:107970001295107F810F1F9108951F93182F882350
:1079800021F00E94763C1150E1F71F9108951F935A
:10799000182F0E94763C803249F0809103018F5F5E
:1079A000809303018530C1F01F9108958091C0003C
:1079B00085FFFCCF84E18093C6008091C00085FFE5
:1079C000FCCF1093C6008091C00085FFFCCF80E102
:1079D0008093C6001F910895E0910401F091050184
:1079E00009951F9108950E94763C803241F0809164
:1079F00003018F5F80930301853081F008958091AA
:107A0000C00085FFFCCF84E18093C6008091C00058
:107A100085FFFCCF80E18093C6000895E0910401CA
:107A2000F09105010995089540E951E08823A1F0FE
:107A30002D9A28EE33E0FA013197F1F721503040CA
:107A4000D1F72D9828EE33E0FA013197F1F7215064
:107A50003040D1F7815061F708953F924F925F9285
:107A60006F927F928F929F92AF92BF92CF92DF924E
:107A7000EF92FF920F931F93CF93DF93000080E16B
:107A80008093C4001092C50088E18093C10086E015
:107A90008093C2005098589A259A81E00E94143D24
:107AA00024E1F22E9EE1E92E85E9D82E0FE0C02ECA
:107AB00010E1B12EAA24A394B1E49B2EA6E58A2E50
:107AC000F2E57F2EE0E26E2E79E4572E63E5462E36
:107AD00050E5352E0E94763C8033B1F18133B9F107
:107AE000803409F46FC0813409F476C0823409F41B
:107AF00085C0853409F488C0803531F1823521F1A3
:107B0000813511F1853509F485C0863509F48DC0BC
:107B1000843609F496C0843709F403C1853709F423
:107B200072C1863709F466C0809103018F5F80932C
:107B30000301853079F6E0910401F0910501099582
:107B40000E94763C803351F60E94F33CC3CF0E94E2
:107B5000763C803249F78091C00085FFFCCFF092DF
:107B6000C6008091C00085FFFCCF9092C600809136
:107B7000C00085FFFCCF8092C6008091C00085FFC9
:107B8000FCCF7092C6008091C00085FFFCCF609250
:107B9000C6008091C00085FFFCCF5092C600809146
:107BA000C00085FFFCCF4092C6008091C00085FFD9
:107BB000FCCF3092C6008091C00085FFFCCFB09210
:107BC000C60088CF0E94763C863808F4BDCF0E945C
:107BD000763C0E94F33C7ECF0E94763C803809F4CC
:107BE0009CC0813809F40BC1823809F43CC1883942
:107BF00009F48FC080E00E94C73C6CCF84E10E94F2
:107C0000BD3C0E94F33C66CF85E00E94BD3C0E94D3
:107C1000F33C60CF0E94763C809306010E94763C44
:107C2000809307010E94F33C55CF0E94763C80333D
:107C300009F41DC183E00E94BD3C80E00E94C73C66
:107C400049CF0E94763C809309020E94763C809343
:107C5000080280910C028E7F80930C020E94763C79
:107C6000853409F415C18091080290910902892B8D
:107C700089F000E010E00E94763CF801E85FFE4FDA
:107C800080830F5F1F4F80910802909109020817AF
:107C9000190788F30E94763C803209F045CF809125
:107CA0000C0280FF01C16091060170910701660F0F
:107CB000771F7093070160930601A0910802B091AD
:107CC00009021097C9F0E8E0F1E09B01AD014E0F09
:107CD0005F1FF999FECF32BD21BD819180BDFA9A17
:107CE000F99A2F5F3F4FE417F50799F76A0F7B1F4B
:107CF00070930701609306018091C00085FFFCCF5F
:107D0000F092C6008091C00085FFFCCFB092C60003
:107D1000E1CE83E00E94C73CDDCE82E00E94C73CFA
:107D2000D9CE0E94763C809309020E94763C8093D3
:107D300008028091060190910701880F991F909386
:107D40000701809306010E94763C853409F4A6C0A1
:107D500080910C028E7F80930C020E94763C8032D0
:107D600009F0B8CE8091C00085FFFCCFF092C6002C
:107D7000609108027091090261157105B9F140E046
:107D800050E080910C02A82FA170B82FB27011C0E2
:107D9000BB2309F45CC0E0910601F0910701319624
:107DA000F0930701E09306014F5F5F4F46175707B7
:107DB000E8F4AA2369F3F999FECF209106013091E6
:107DC000070132BD21BDF89A90B58091C00085FFB2
:107DD000FCCF9093C6002F5F3F4F30930701209355
:107DE00006014F5F5F4F4617570718F38091C00099
:107DF00085FDE5CE8091C00085FFF8CFE0CE81E023
:107E00000E94C73C67CE0E94763C803209F08CCE3F
:107E10008091C00085FFFCCFF092C6008091C00029
:107E200085FFFCCFE092C6008091C00085FFFCCFAB
:107E3000D092C6008091C00085FFFCCFC092C600E2
:107E40008091C00085FFFCCFB092C60043CEE09188
:107E50000601F091070194918091C00085FFFCCF4D
:107E60009093C6009CCF80E10E94C73C33CE0E9415
:107E7000763C0E94763C182F0E94763C112309F430
:107E800083C0113009F484C08FE00E94C73C22CE29
:107E900080910C02816080930C02E5CE80910C02EF
:107EA000816080930C0259CF809107018823880F4D
:107EB000880B8A2180930B02809106019091070123
:107EC000880F991F90930701809306018091080203
:107ED00080FF09C080910802909109020196909359
:107EE000090280930802F894F999FECF1127E091D6
:107EF0000601F0910701C8E0D1E08091080290915D
:107F00000902103091F40091570001700130D9F34B
:107F100003E000935700E89500915700017001308D
:107F2000D9F301E100935700E89509901990009169
:107F3000570001700130D9F301E000935700E89534
:107F40001395103498F011270091570001700130FB
:107F5000D9F305E000935700E895009157000170B0
:107F60000130D9F301E100935700E895329602976A
:107F700009F0C7CF103011F00296E5CF112480919F
:107F8000C00085FFB9CEBCCE8EE10E94C73CA2CD19
:0C7F900085E90E94C73C9ECDF894FFCF0D
:027F9C00800063
:040000030000780081
:00000001FF
